00COTAHIST.2012BOVESPA 20121221                                                                                                                                                                                                                      
012012122102ABCB4       010ABC BRASIL  PN      N2   R$  000000000132000000000013460000000001314000000000132600000000013460000000001321000000000134600615000000000000498400000000000661315800000000000000009999123100000010000000000000BRABCBACNPR4118
012012122196ABCB4F      020ABC BRASIL  PN      N2   R$  000000000132000000000013300000000001222000000000126500000000012220000000001220000000000133000010000000000000000337000000000000426413000000000000009999123100000010000000000000BRABCBACNPR4118
012012122112ABCP11      010FII ABC IMOBCI           R$  000000000101400000000010140000000001014000000000101400000000010140000000001005000000000101400001000000000000000100000000000000101400000000000000009999123100000010000000000000BRABCPCTF000206
012012122102ABRE11      010ABRIL EDUCA UNT     N2   R$  000000000400000000000040670000000003930000000000397100000000039800000000003970000000000399400233000000000000069600000000000276391800000000000000009999123100000010000000000000BRABRECDAM15101
012012122196ABRE11F     020ABRIL EDUCA UNT     N2   R$  000000000401000000000040100000000003851000000000394900000000038530000000003853000000000405900008000000000000000138000000000000544978000000000000009999123100000010000000000000BRABRECDAM15101
012012122102AEDU3       010ANHANGUERA  ON      NM   R$  000000000345000000000035370000000003431000000000348400000000034700000000003469000000000347003116000000000000963000000000003355093900000000000000009999123100000010000000000000BRAEDUACNOR9106
012012122196AEDU3F      020ANHANGUERA  ON      NM   R$  000000000352500000000035320000000003426000000000348000000000034990000000003426000000000349900026000000000000000760000000000002645317000000000000009999123100000010000000000000BRAEDUACNOR9106
012012122162AEDU3T      030ANHANGUERA  ON      NM031R$  000000000350000000000035010000000003500000000000350000000000035010000000000000000000000000000002000000000000000800000000000002800178000000000000009999123100000010000000000000BRAEDUACNOR9106
012012122112AEFI11      010FII AESAPAR CI           R$  000000001174400000000118450000000011701000000001179300000000118450000000011751000000001184500030000000000000002573000000000030345829000000000000009999123100000010000000000000BRAEFICTF002112
012012122102AELP3       010AES ELPA    ON           R$  000000000141400000000014350000000001414000000000142000000000014350000000001384000000000144000009000000000000004500000000000006390700000000000000009999123100000010000000000000BRAELPACNOR2119
012012122102AFLT3       010AFLUENTE T  ON           R$  000000000043500000000004350000000000351000000000038300000000003510000000000353000000000055000014000000000000010900000000000004181200000000000000009999123100000010000000000000BRAFLTACNOR1102
012012122102AFLU3       010AFLUENTE    ON           R$  000000000058000000000005800000000000580000000000058000000000005800000000000423000000000063500001000000000000000200000000000000116000000000000000009999123100000010000000000000BRAFLUACNOR9115
012012122112AGCX11      010FII AG CAIXACI           R$  000000011300000000001130000000000112500000000011275800000001128000000000112500000000011280000015000000000000000113000000000012741706000000000000009999123100000010000000000000BRAGCXCTF003101
012012122102AGEN11      010AGRENCO     DR3          R$  000000000002500000000000250000000000024000000000002400000000000240000000000024000000000002500071000000000001347700000000000032478800000000000000009999123100000010000000000000BRAGENBDR001100
012012122102AGRO3       010BRASILAGRO  ON      NM   R$  000000000097300000000009850000000000966000000000097100000000009850000000000980000000000098300034000000000000034200000000000033208500000000000000009999123100000010000000000000BRAGROACNOR7102
012012122196AGRO3F      020BRASILAGRO  ON      NM   R$  000000000094000000000009400000000000940000000000094000000000009400000000000940000000000000000001000000000000000037000000000000034780000000000000009999123100000010000000000000BRAGROACNOR7102
012012122102ALLL3       010ALL AMER LATON      NM   R$  000000000082800000000008300000000000803000000000082200000000008270000000000826000000000082704582000000000001947800000000001601583300000000000000009999123100000010000000000000BRALLLACNOR6117
012012122196ALLL3F      020ALL AMER LATON      NM   R$  000000000083700000000008450000000000814000000000082400000000008200000000000820000000000082500045000000000000001475000000000001216580000000000000009999123100000010000000000000BRALLLACNOR6117
012012122162ALLL3T      030ALL AMER LATON      NM031R$  000000000082500000000008350000000000825000000000083000000000008310000000000000000000000000000022000000000000023100000000000019175372000000000000009999123100000010000000000000BRALLLACNOR6117
012012122162ALLL3T      030ALL AMER LATON      NM060R$  000000000083200000000008330000000000832000000000083200000000008330000000000000000000000000000002000000000000002000000000000001665675000000000000009999123100000010000000000000BRALLLACNOR6117
012012122162ALLL3T      030ALL AMER LATON      NM090R$  000000000083200000000008330000000000832000000000083200000000008330000000000000000000000000000002000000000000020000000000000016643564000000000000009999123100000010000000000000BRALLLACNOR6117
012012122112ALMI11B     010FII TORRE ALCI      MB   R$  000000037699900000003770000000000365000000000037152100000003700000000000365220000000037000000014000000000000000033000000000012260197000000000000009999123100000010000000000000BRALMICTF003196
012012122102ALPA3       010ALPARGATAS  ON      N1   R$  000000000137000000000014200000000001353000000000141900000000014180000000001417000000000143000019000000000000487200000000000691667500000000000000009999123100000010000000000000BRALPAACNOR0199
012012122102ALPA4       010ALPARGATAS  PN      N1   R$  000000000143000000000014490000000001417000000000142500000000014490000000001435000000000144900633000000000000694900000000000990317300000000000000009999123100000010000000000000BRALPAACNPR7199
012012122196ALPA4F      020ALPARGATAS  PN      N1   R$  000000000142400000000014490000000001391000000000140900000000014100000000001401000000000145000020000000000000000417000000000000587680000000000000009999123100000010000000000000BRALPAACNPR7199
012012122102ALSC3       010ALIANSCE    ON      NM   R$  000000000242300000000024490000000002380000000000239500000000023800000000002380000000000239901533000000000000630300000000001509626300000000000000009999123100000010000000000000BRALSCACNOR0103
012012122196ALSC3F      020ALIANSCE    ON      NM   R$  000000000240700000000024240000000002391000000000241000000000023910000000002390000000000240000020000000000000000422000000000001017269000000000000009999123100000010000000000000BRALSCACNOR0103
012012122102AMAR3       010LOJAS MARISAON      NM   R$  000000000313000000000032200000000003130000000000320900000000032200000000003215000000000322000554000000000000284600000000000913482300000000000000009999123100000010000000000000BRAMARACNOR4108
012012122196AMAR3F      020LOJAS MARISAON      NM   R$  000000000316300000000032200000000003000000000000318100000000030000000000003030000000000319000021000000000000000350000000000001113494000000000000009999123100000010000000000000BRAMARACNOR4108
012012122102AMBV3       010AMBEV       ON           R$  000000000846400000000085050000000008405000000000845500000000084980000000008455000000000849801727000000000000278000000000002350899900000000000000009999123100000010000000000000BRAMBVACNOR4150
012012122196AMBV3F      020AMBEV       ON           R$  000000000864900000000086490000000008402000000000845700000000084720000000008431000000000854900067000000000000001860000000000015732384000000000000009999123100000010000000000000BRAMBVACNOR4150
012012122162AMBV3T      030AMBEV       ON        090R$  000000000858100000000085820000000008581000000000858100000000085820000000000000000000000000000004000000000000010000000000000085818250000000000000009999123100000010000000000000BRAMBVACNOR4150
012012122102AMBV4       010AMBEV       PN           R$  000000000862000000000086920000000008572000000000862900000000086250000000008625000000000863604564000000000001191900000000010286432400000000000000009999123100000010000000000000BRAMBVACNPR1150
012012122196AMBV4F      020AMBEV       PN           R$  000000000869600000000088370000000008600000000000864200000000086350000000008638000000000877700115000000000000002661000000000022996380000000000000009999123100000010000000000000BRAMBVACNPR1150
012012122162AMBV4T      030AMBEV       PN        031R$  000000000865000000000086850000000008642000000000864900000000086850000000000000000000000000000006000000000000003200000000000027679948000000000000009999123100000010000000000000BRAMBVACNPR1150
012012122162AMBV4T      030AMBEV       PN        180R$  000000000897300000000089740000000008973000000000897300000000089740000000000000000000000000000002000000000000000100000000000000897345000000000000009999123100000010000000000000BRAMBVACNPR1150
012012122178AMBVA87     070AMBV        PN        000R$  000000000015500000000001550000000000124000000000013900000000001240000000000000000000000000000002000000000000000200000000000000027900000000000870002013012100000010000000000000BRAMBVACNPR1150
012012122178AMBVA91     070AMBV        PN        000R$  000000000004100000000000410000000000041000000000004100000000000410000000000000000000000009000003000000000000001700000000000000069700000000000910002013012100000010000000000000BRAMBVACNPR1150
012012122102AMIL3       010AMIL        ON      NM   R$  000000000307700000000030840000000003077000000000307900000000030810000000003081000000000308300322000000000000513800000000001582304200000000000000009999123100000010000000000000BRAMILACNOR0106
012012122196AMIL3F      020AMIL        ON      NM   R$  000000000308000000000030990000000003048000000000308200000000030990000000003065000000000309900015000000000000000286000000000000881671000000000000009999123100000010000000000000BRAMILACNOR0106
012012122102AMZO11B     010AMAZON      DRN     MB   R$  000000005310900000000531090000000053109000000005310900000000531090000000000000000000000000000001000000000000000200000000000010621800000000000000009999123100000010000000000000BRAMZOBDR002100
012012122102AORE3       010ALL ORE     ON           R$  000000000042000000000004200000000000420000000000042000000000004200000000000400000000000051800001000000000000000200000000000000084000000000000000009999123100000010000000000000BRAOREACNOR2100
012012122102ARZZ3       010AREZZO CO   ON      NM   R$  000000000395000000000040010000000003950000000000399000000000040010000000004001000000000401200364000000000000106200000000000423743700000000000000009999123100000010000000000000BRARZZACNOR3105
012012122196ARZZ3F      020AREZZO CO   ON      NM   R$  000000000398500000000040100000000003801000000000388600000000038030000000003804000000000411800010000000000000000377000000000001465089000000000000009999123100000010000000000000BRARZZACNOR3105
012012122102AUTM3       010AUTOMETAL   ON      NM   R$  000000000200900000000020370000000001999000000000202300000000020310000000002025000000000203100069000000000000039200000000000079306700000000000000009999123100000010000000000000BRAUTMACNOR8106
012012122196AUTM3F      020AUTOMETAL   ON      NM   R$  000000000202000000000020200000000001903000000000197000000000020000000000002000000000000203800009000000000000000304000000000000599059000000000000009999123100000010000000000000BRAUTMACNOR8106
012012122102AZEV4       010AZEVEDO     PN           R$  000000000022100000000002390000000000221000000000022300000000002390000000000200000000000023900005000000000000000900000000000000200700000000000000009999123100000010000000000000BRAZEVACNPR7113
012012122102BAZA3       010AMAZONIA    ON           R$  000000000003600000000000360000000000035000000000003500000000000360000000000035000000000003600005000000000000206000000000000007391000000000000000009999123100000010000000000000BRBAZAACNOR0162
012012122102BBAS3       010BRASIL      ON  EJ  NM   R$  000000000244000000000025200000000002421000000000247900000000025200000000002501000000000252014831000000000007392400000000018330092200000000000000009999123100000010000000000000BRBBASACNOR3233
012012122196BBAS3F      020BRASIL      ON  EJ  NM   R$  000000000244100000000025200000000002401000000000247800000000025140000000002508000000000253100371000000000000010208000000000025298203000000000000009999123100000010000000000000BRBBASACNOR3233
012012122162BBAS3T      030BRASIL      ON  EJ  NM030R$  000000000245000000000025330000000002450000000000245300000000025330000000000000000000000000000008000000000000005100000000000012514299000000000000009999123100000010000000000000BRBBASACNOR3233
012012122162BBAS3T      030BRASIL      ON  EJ  NM031R$  000000000251700000000025180000000002512000000000251300000000025130000000000000000000000000000004000000000000000400000000000001005396000000000000009999123100000010000000000000BRBBASACNOR3233
012012122162BBAS3T      030BRASIL      ON  EJ  NM060R$  000000000248800000000025060000000002488000000000248800000000025060000000000000000000000000000004000000000000561300000000001396864721000000000000009999123100000010000000000000BRBBASACNOR3233
012012122162BBAS3T      030BRASIL      ON  EJ  NM062R$  000000000252300000000025240000000002523000000000252300000000025240000000000000000000000000000004000000000000010000000000000025239552000000000000009999123100000010000000000000BRBBASACNOR3233
012012122178BBASA20     070BBAS    /EJ ON      NM000R$  000000000053500000000005380000000000535000000000053600000000005380000000000000000000000000000002000000000000008000000000000004292000000000000196402013012100000010000000000000BRBBASACNOR3231
012012122178BBASA21     070BBAS    /EJ ON      NM000R$  000000000044000000000004400000000000440000000000044000000000004400000000000000000000000000000003000000000000006300000000000002772000000000000206402013012100000010000000000000BRBBASACNOR3231
012012122178BBASA22     070BBAS    /EJ ON      NM000R$  000000000032200000000003570000000000315000000000033900000000003570000000000351000000000038000011000000000000018900000000000006418400000000000216402013012100000010000000000000BRBBASACNOR3231
012012122178BBASA23     070BBAS  FM/EJ ON      NM000R$  000000000019000000000002640000000000190000000000023800000000002620000000000189000000000041000216000000000000177700000000000042357200000000000226402013012100000010000000000000BRBBASACNOR3231
012012122178BBASA24     070BBAS  FM/EJ ON      NM000R$  000000000013600000000001790000000000136000000000015800000000001770000000000184000000000025000177000000000000268500000000000042544500000000000236402013012100000010000000000000BRBBASACNOR3231
012012122178BBASA25     070BBAS  FM/EJ ON      NM000R$  000000000007300000000001100000000000073000000000010000000000001100000000000102000000000016700177000000000000284500000000000028514700000000000246402013012100000010000000000000BRBBASACNOR3231
012012122178BBASA26     070BBAS  FM/EJ ON      NM000R$  000000000003000000000000640000000000030000000000004500000000000640000000000048000000000006400112000000000000185000000000000008362800000000000256402013012100000010000000000000BRBBASACNOR3231
012012122178BBASA27     070BBAS  FM/EJ ON      NM000R$  000000000001500000000000180000000000014000000000001500000000000170000000000014000000000002400032000000000000040100000000000000618400000000000270002013012100000010000000000000BRBBASACNOR3233
012012122178BBASB22     070BBAS    /EJ ON      NM000R$  000000000038000000000003800000000000380000000000038000000000003800000000000275000000000000000001000000000000001000000000000000380000000000000216402013021800000010000000000000BRBBASACNOR3231
012012122178BBASB23     070BBAS  FM/EJ ON      NM000R$  000000000025500000000002940000000000253000000000027700000000002940000000000100000000000032000080000000000000110000000000000030541700000000000226402013021800000010000000000000BRBBASACNOR3231
012012122178BBASB24     070BBAS  FM/EJ ON      NM000R$  000000000017000000000002110000000000170000000000018900000000002110000000000032000000000025000061000000000000064700000000000012242900000000000237502013021800000010000000000000BRBBASACNOR3232
012012122178BBASB25     070BBAS  FM/EJ ON      NM000R$  000000000011800000000001510000000000118000000000013600000000001510000000000139000000000000000071000000000000097300000000000013256800000000000246402013021800000010000000000000BRBBASACNOR3231
012012122178BBASB26     070BBAS  FM/EJ ON      NM000R$  000000000007100000000000930000000000069000000000008000000000000930000000000045000000000000000059000000000000078400000000000006347300000000000257502013021800000010000000000000BRBBASACNOR3232
012012122178BBASB27     070BBAS  FM/EJ ON      NM000R$  000000000004200000000000620000000000042000000000005200000000000590000000000051000000000008500041000000000000044800000000000002363700000000000266402013021800000010000000000000BRBBASACNOR3231
012012122178BBASB28     070BBAS    /EJ ON      NM000R$  000000000003100000000000320000000000031000000000003100000000000320000000000003000000000000000003000000000000027000000000000000839000000000000280002013021800000010000000000000BRBBASACNOR3233
012012122178BBASB55     070BBAS    /EJ ON      NM000R$  000000000010400000000001060000000000104000000000010500000000001060000000000000000000000000000004000000000000025000000000000002635000000000000255002013021800000010000000000000BRBBASACNOR3233
012012122182BBASM20     080BBASE   /EJ ON      NM000R$  000000000000300000000000030000000000003000000000000300000000000030000000000000000000000000800001000000000000000500000000000000001500000000000196402013012100000010000000000000BRBBASACNOR3231
012012122182BBASM22     080BBASE   /EJ ON      NM000R$  000000000001000000000000100000000000009000000000000900000000000090000000000008000000000001300003000000000000003100000000000000030000000000000216402013012100000010000000000000BRBBASACNOR3231
012012122182BBASM23     080BBASE FM/EJ ON      NM000R$  000000000002300000000000230000000000013000000000001900000000000130000000000006000000000001500013000000000000012100000000000000231100000000000226402013012100000010000000000000BRBBASACNOR3231
012012122182BBASM24     080BBASE FM/EJ ON      NM000R$  000000000004600000000000460000000000029000000000003400000000000290000000000028000000000004200028000000000000034300000000000001170900000000000236402013012100000010000000000000BRBBASACNOR3231
012012122182BBASM25     080BBASE FM/EJ ON      NM000R$  000000000008400000000000840000000000056000000000006600000000000580000000000050000000000011900030000000000000032100000000000002121600000000000246402013012100000010000000000000BRBBASACNOR3231
012012122182BBASM26     080BBASE FM/EJ ON      NM000R$  000000000014300000000001430000000000103000000000012400000000001030000000000000000000000013000051000000000000056600000000000007025300000000000256402013012100000010000000000000BRBBASACNOR3231
012012122182BBASN23     080BBASE FM/EJ ON      NM000R$  000000000004400000000000440000000000039000000000004000000000000420000000000000000000000000000007000000000000011200000000000000456000000000000226402013021800000010000000000000BRBBASACNOR3231
012012122182BBASN24     080BBASE FM/EJ ON      NM000R$  000000000007700000000000770000000000062000000000007200000000000620000000000000000000000000000025000000000000033600000000000002450000000000000237502013021800000010000000000000BRBBASACNOR3232
012012122182BBASN25     080BBASE FM/EJ ON      NM000R$  000000000011400000000001140000000000091000000000010600000000000910000000000000000000000000000026000000000000034000000000000003634600000000000246402013021800000010000000000000BRBBASACNOR3231
012012122182BBASN26     080BBASE FM/EJ ON      NM000R$  000000000017600000000001760000000000145000000000016100000000001460000000000000000000000000000053000000000000072900000000000011745300000000000257502013021800000010000000000000BRBBASACNOR3232
012012122102BBDC3       010BRADESCO    ON      N1   R$  000000000347800000000035700000000003470000000000353700000000035700000000003531000000000357002219000000000000759700000000002687118100000000000000009999123100000010000000000000BRBBDCACNOR1593
012012122196BBDC3F      020BRADESCO    ON      N1   R$  000000000349500000000035970000000003461000000000351100000000034610000000003463000000000353300053000000000000001432000000000005025552000000000000009999123100000010000000000000BRBBDCACNOR1593
012012122102BBDC4       010BRADESCO    PN      N1   R$  000000000360000000000036930000000003600000000000366300000000036930000000003676000000000369313247000000000005491400000000020118354200000000000000009999123100000010000000000000BRBBDCACNPR8593
012012122196BBDC4F      020BRADESCO    PN      N1   R$  000000000364000000000036990000000003611000000000365600000000036800000000003662000000000368500180000000000000004307000000000015749028000000000000009999123100000010000000000000BRBBDCACNPR8593
012012122162BBDC4T      030BRADESCO    PN      N1031R$  000000000363700000000036380000000003637000000000363700000000036380000000000000000000000000000002000000000000005000000000000018188690000000000000009999123100000010000000000000BRBBDCACNPR8593
012012122162BBDC4T      030BRADESCO    PN      N1060R$  000000000370200000000037030000000003702000000000370200000000037030000000000000000000000000000002000000000000000500000000000001851240000000000000009999123100000010000000000000BRBBDCACNPR8593
012012122178BBDCA33     070BBDC        PN      N1000R$  000000000035500000000003550000000000355000000000035500000000003550000000000347000000000000000003000000000000005000000000000001775000000000000329802013012100000010000000000000BRBBDCACNPR8592
012012122178BBDCA34     070BBDC        PN      N1000R$  000000000027900000000003100000000000279000000000029700000000003030000000000270000000000033000006000000000000016100000000000004781900000000000339602013012100000010000000000000BRBBDCACNPR8591
012012122178BBDCA35     070BBDC  FM    PN      N1000R$  000000000019000000000002280000000000184000000000020300000000002200000000000132000000000000000105000000000000086000000000000017469400000000000349802013012100000010000000000000BRBBDCACNPR8592
012012122178BBDCA36     070BBDC  FM    PN      N1000R$  000000000011900000000001490000000000117000000000013000000000001490000000000100000000000015200121000000000000112900000000000014784900000000000359802013012100000010000000000000BRBBDCACNPR8592
012012122178BBDCA37     070BBDC  FM    PN      N1000R$  000000000006100000000000830000000000061000000000007100000000000800000000000028000000000009200072000000000000092400000000000006649500000000000369802013012100000010000000000000BRBBDCACNPR8592
012012122178BBDCA38     070BBDC  FM    PN      N1000R$  000000000003400000000000450000000000031000000000003800000000000390000000000032000000000004500025000000000000030500000000000001160600000000000379202013012100000010000000000000BRBBDCACNPR8589
012012122178BBDCA39     070BBDC  FM    PN      N1000R$  000000000001100000000000180000000000011000000000001400000000000180000000000016000000000000000018000000000000025200000000000000377600000000000390002013012100000010000000000000BRBBDCACNPR8593
012012122178BBDCA40     070BBDC        PN      N1000R$  000000000000700000000000070000000000007000000000000700000000000070000000000007000000000000000002000000000000010000000000000000070000000000000400002013012100000010000000000000BRBBDCACNPR8593
012012122178BBDCB35     070BBDC  FM    PN      N1000R$  000000000023300000000002780000000000233000000000026300000000002750000000000000000000000000000027000000000000037600000000000009907300000000000349202013021800000010000000000000BRBBDCACNPR8589
012012122178BBDCB36     070BBDC  FM    PN      N1000R$  000000000017900000000002030000000000162000000000018000000000001990000000000010000000000000000259000000000000310500000000000056085300000000000359602013021800000010000000000000BRBBDCACNPR8591
012012122178BBDCB37     070BBDC  FM    PN      N1000R$  000000000011700000000001410000000000111000000000013000000000001410000000000000000000000014200020000000000000027200000000000003543900000000000370002013021800000010000000000000BRBBDCACNPR8593
012012122178BBDCB38     070BBDC  FM    PN      N1000R$  000000000007000000000000930000000000070000000000008100000000000910000000000000000000000000000022000000000000035200000000000002867200000000000380002013021800000010000000000000BRBBDCACNPR8593
012012122178BBDCB39     070BBDC  FM    PN      N1000R$  000000000005500000000000580000000000052000000000005500000000000560000000000000000000000000000018000000000000028800000000000001588800000000000390002013021800000010000000000000BRBBDCACNPR8593
012012122182BBDCM33     080BBDCE       PN      N1000R$  000000000002000000000000200000000000016000000000001800000000000160000000000000000000000001900006000000000000016000000000000000300000000000000329802013012100000010000000000000BRBBDCACNPR8592
012012122182BBDCM34     080BBDCE FM    PN      N1000R$  000000000002800000000000330000000000028000000000002900000000000300000000000000000000000002100011000000000000020200000000000000590700000000000339602013012100000010000000000000BRBBDCACNPR8591
012012122182BBDCM35     080BBDCE FM    PN      N1000R$  000000000004600000000000550000000000030000000000004100000000000330000000000025000000000003300279000000000000471700000000000019402900000000000349802013012100000010000000000000BRBBDCACNPR8592
012012122182BBDCM36     080BBDCE FM    PN      N1000R$  000000000007500000000000850000000000060000000000007000000000000600000000000052000000000006600046000000000000062900000000000004420600000000000359802013012100000010000000000000BRBBDCACNPR8592
012012122182BBDCM37     080BBDCE FM    PN      N1000R$  000000000012500000000001300000000000091000000000011100000000000920000000000000000000000014000053000000000000062600000000000006954300000000000369802013012100000010000000000000BRBBDCACNPR8592
012012122182BBDCN34     080BBDCE FM    PN      N1000R$  000000000004700000000000470000000000043000000000004500000000000430000000000000000000000000000015000000000000023700000000000001074800000000000339402013021800000010000000000000BRBBDCACNPR8590
012012122182BBDCN35     080BBDCE FM    PN      N1000R$  000000000007300000000000770000000000073000000000007400000000000730000000000000000000000000000012000000000000016400000000000001214000000000000349202013021800000010000000000000BRBBDCACNPR8589
012012122182BBDCN36     080BBDCE FM    PN      N1000R$  000000000011000000000001120000000000094000000000010200000000000970000000000000000000000000000054000000000000080500000000000008274400000000000359602013021800000010000000000000BRBBDCACNPR8591
012012122182BBDCN37     080BBDCE FM    PN      N1000R$  000000000015700000000001600000000000133000000000014700000000001340000000000000000000000000000028000000000000038300000000000005653900000000000370002013021800000010000000000000BRBBDCACNPR8593
012012122112BBFI11B     010FII BB PROGRCI      MB   R$  000000044900000000004560000000000448000000000045446700000004549000000000451600000000045500000011000000000000000073000000000033176097000000000000009999123100000010000000000000BRBBFICTF006189
012012122112BBPO11      010FII BB PRGIICI           R$  000000001170000000000118510000000011662000000001176100000000118500000000011843000000001185001019000000000000085684000000001007766040000000000000009999123100000010000000000000BRBBPOCTF003101
012012122112BBRC11      010FII BB CORP CI           R$  000000001130100000000114850000000011301000000001145300000000114800000000011401000000001148000010000000000000000258000000000002955114000000000000009999123100000010000000000000BRBBRCCTF004115
012012122102BBRK3       010BR BROKERS  ON      NM   R$  000000000068200000000006950000000000682000000000068900000000006850000000000685000000000069202036000000000001718500000000001184650500000000000000009999123100000010000000000000BRBBRKACNOR4107
012012122196BBRK3F      020BR BROKERS  ON      NM   R$  000000000068000000000007550000000000680000000000071700000000006930000000000640000000000075200009000000000000000336000000000000241113000000000000009999123100000010000000000000BRBBRKACNOR4107
012012122102BBTG11      010BTG PACTUAL UNT          R$  000000000294000000000031900000000002940000000000297900000000030150000000003005000000000301500585000000000000243000000000000723940200000000000000009999123100000010000000000000BRBBTGUNT007102
012012122196BBTG11F     020BTG PACTUAL UNT          R$  000000000297700000000030000000000002977000000000298700000000030000000000002971000000000309900007000000000000000257000000000000767681000000000000009999123100000010000000000000BRBBTGUNT007102
012012122112BBVJ11      010FII C JARDIMCI           R$  000000001121500000000115000000000011200000000001129800000000113300000000011300000000001145000040000000000000006345000000000071687105000000000000009999123100000010000000000000BRBBVJCTF001124
012012122112BCFF11B     010FII BC FFII CI      MB   R$  000000001338000000000136000000000013255000000001347700000000135780000000013575000000001357800110000000000000004899000000000066024872000000000000009999123100000010000000000000BRBCFFCTF000132
012012122102BDLL4       010BARDELLA    PN           R$  000000000660000000000067000000000006600000000000662600000000067000000000006600000000000700000007000000000000002300000000000015240000000000000000009999123100000010000000000000BRBDLLACNPR8148
012012122196BDLL4F      020BARDELLA    PN           R$  000000000655000000000065500000000006550000000000655000000000065500000000006580000000000670000002000000000000000010000000000000065500000000000000009999123100000010000000000000BRBDLLACNPR8148
012012122162BDLL4T      030BARDELLA    PN        030R$  000000000673600000000067370000000006736000000000673600000000067370000000000000000000000000000002000000000000000300000000000002021055000000000000009999123100000010000000000000BRBDLLACNPR8148
012012122102BEEF3       010MINERVA     ON      NM   R$  000000000103900000000010710000000001022000000000105500000000010710000000001070000000000107102041000000000000725300000000000765460100000000000000009999123100000010000000000000BRBEEFACNOR6104
012012122196BEEF3F      020MINERVA     ON      NM   R$  000000000103000000000010640000000001023000000000103900000000010640000000001030000000000106400016000000000000000355000000000000369000000000000000009999123100000010000000000000BRBEEFACNOR6104
012012122162BEEF3T      030MINERVA     ON      NM031R$  000000000106100000000010700000000001061000000000106800000000010700000000000000000000000000000004000000000000002600000000000002779049000000000000009999123100000010000000000000BRBEEFACNOR6104
012012122102BEES3       010BANESTES    ON           R$  000000000005000000000000500000000000049000000000004900000000000490000000000049000000000005100016000000000000095700000000000004758300000000000000009999123100000010000000000000BRBEESACNOR9235
012012122102BEES4       010BANESTES    PN           R$  000000000004700000000000470000000000047000000000004700000000000470000000000046000000000004700004000000000000002500000000000000117500000000000000009999123100000010000000000000BRBEESACNPR6160
012012122102BEMA3       010BEMATECH    ON      NM   R$  000000000057200000000005750000000000560000000000056600000000005680000000000568000000000057100150000000000000150300000000000085167100000000000000009999123100000010000000000000BRBEMAACNOR0111
012012122196BEMA3F      020BEMATECH    ON      NM   R$  000000000057500000000005750000000000565000000000056800000000005650000000000565000000000060000003000000000000000100000000000000056850000000000000009999123100000010000000000000BRBEMAACNOR0111
012012122162BEMA3T      030BEMATECH    ON      NM030R$  000000000057200000000005730000000000572000000000057200000000005730000000000000000000000000000002000000000000020000000000000011440314000000000000009999123100000010000000000000BRBEMAACNOR0111
012012122102BGIP4       010BANESE      PN           R$  000000000533800000000053950000000005100000000000520000000000053950000000005100000000000539600007000000000000002100000000000010921000000000000000009999123100000010000000000000BRBGIPACNPR8176
012012122102BHGR3       010BHG         ON      NM   R$  000000000190000000000019150000000001890000000000189700000000018900000000001890000000000190000008000000000000011100000000000021062500000000000000009999123100000010000000000000BRBHGRACNOR9101
012012122196BHGR3F      020BHG         ON      NM   R$  000000000195500000000034000000000001955000000000265000000000021760000000001900000000000217600006000000000000000024000000000000063617000000000000009999123100000010000000000000BRBHGRACNOR9101
012012122102BICB4       010BICBANCO    PN  EJ  N1   R$  000000000061400000000006280000000000601000000000062300000000006250000000000606000000000062500096000000000000110300000000000068735600000000000000009999123100000010000000000000BRBICBACNPR7128
012012122196BICB4F      020BICBANCO    PN  EJ  N1   R$  000000000061500000000006150000000000526000000000058600000000006050000000000627000000000063800017000000000000000331000000000000194174000000000000009999123100000010000000000000BRBICBACNPR7128
012012122102BIOM4       010BIOMM       PN           R$  000000000042000000000004200000000000420000000000042000000000004200000000000420000000000044000002000000000000003000000000000001260000000000000000009999123100000010000000000000BRBIOMACNPR9101
012012122196BIOM4F      020BIOMM       PN           R$  000000000039900000000003990000000000399000000000039900000000003990000000000360000000000045000001000000000000000522000000000000208278000000000000009999123100000010000000000000BRBIOMACNPR9101
012012122102BISA3       010BROOKFIELD  ON      NM   R$  000000000034400000000003460000000000338000000000034100000000003420000000000341000000000034204989000000000003118800000000001066178700000000000000009999123100000010000000000000BRBISAACNOR8109
012012122196BISA3F      020BROOKFIELD  ON      NM   R$  000000000035000000000003500000000000339000000000034100000000003410000000000339000000000034200049000000000000001604000000000000548291000000000000009999123100000010000000000000BRBISAACNOR8109
012012122162BISA3T      030BROOKFIELD  ON      NM031R$  000000000034000000000003430000000000340000000000034000000000003430000000000000000000000000000004000000000000005400000000000001840983000000000000009999123100000010000000000000BRBISAACNOR8109
012012122162BISA3T      030BROOKFIELD  ON      NM122R$  000000000035000000000003510000000000350000000000035000000000003510000000000000000000000000000002000000000000003000000000000001052950000000000000009999123100000010000000000000BRBISAACNOR8109
012012122102BMIN4       010MERC INVEST PN           R$  000000000002500000000000250000000000025000000000002500000000000250000000000024000000000002500002000000000000002000000000000000050000000000000000009999123100000010000000000000BRBMINACNPR1158
012012122196BMTO4F      020BRASMOTOR   PN           R$  000000000007600000000000760000000000076000000000007600000000000760000000000076000000000007700003000000000000000491000000000000037316000000000000009999123100000010000000000000BRBMTOACNPR6065
012012122112BNFS11      010FII BANRISULCI           R$  000000001010000000000106000000000010100000000001044700000000105800000000010200000000001058000006000000000000000374000000000003907200000000000000009999123100000010000000000000BRBNFSCTF000103
012012122114BOVA11      010ISHARES BOVACI           R$  000000000594300000000059800000000005909000000000593700000000059720000000005972000000000597902752000000000001977150000000011738636250000000000000009999123100000010000000000000BRBOVACTF003101
012012122196BOVA11F     020ISHARES BOVACI           R$  000000000600000000000061000000000005905000000000595100000000059090000000005616000000000601800024000000000000000041000000000000244023000000000000009999123100000010000000000000BRBOVACTF003101
012012122182BOVAM58     080BOVAE       CI        000R$  000000000005800000000000580000000000058000000000005800000000000580000000000000000000000000000001000000000000000100000000000000005800000000000580002013012100000010000000000000BRBOVACTF003101
012012122102BPHA3       010BR PHARMA   ON      NM   R$  000000000137100000000014000000000001365000000000138400000000013860000000001371000000000138700051000000000000860000000000001190610000000000000000009999123100000010000000000000BRBPHAACNOR6102
012012122162BPHA3T      030BR PHARMA   ON      NM090R$  000000000138600000000013870000000001386000000000138600000000013870000000000000000000000000000002000000000000010000000000000013868400000000000000009999123100000010000000000000BRBPHAACNOR6102
012012122102BPNM4       010PANAMERICANOPN      N1   R$  000000000050000000000005100000000000497000000000050800000000005100000000000506000000000051000282000000000000689600000000000350390500000000000000009999123100000010000000000000BRBPNMACNPR6111
012012122196BPNM4F      020PANAMERICANOPN      N1   R$  000000000050000000000005100000000000481000000000049600000000004810000000000481000000000051000022000000000000000326000000000000161961000000000000009999123100000010000000000000BRBPNMACNPR6111
012012122102BRAP3       010BRADESPAR   ON      N1   R$  000000000303100000000030310000000002971000000000300000000000030000000000002981000000000300000055000000000000067000000000000201015800000000000000009999123100000010000000000000BRBRAPACNOR5123
012012122196BRAP3F      020BRADESPAR   ON      N1   R$  000000000319900000000031990000000003199000000000319900000000031990000000002980000000000319900001000000000000000002000000000000006398000000000000009999123100000010000000000000BRBRAPACNOR5123
012012122102BRAP4       010BRADESPAR   PN      N1   R$  000000000316900000000032200000000003154000000000317500000000032000000000003200000000000320104235000000000001055900000000003352577800000000000000009999123100000010000000000000BRBRAPACNPR2123
012012122196BRAP4F      020BRADESPAR   PN      N1   R$  000000000318500000000032690000000003151000000000317600000000032680000000003173000000000327000051000000000000001498000000000004758541000000000000009999123100000010000000000000BRBRAPACNPR2123
012012122178BRAPL41     070BRAP        PN      N1000R$  000000000012000000000001200000000000120000000000012000000000001200000000000000000000000000000002000000000000013000000000000001560000000000000410002013121600000010000000000000BRBRAPACNPR2123
012012122182BRAPX29     080BRAPE       PN      N1000R$  000000000012000000000001200000000000120000000000012000000000001200000000000000000000000000000002000000000000013000000000000001560000000000000290002013121600000010000000000000BRBRAPACNPR2123
012012122182BRAPX32     080BRAPE       PN      N1000R$  000000000024000000000002400000000000240000000000024000000000002400000000000000000000000000000002000000000000013000000000000003120000000000000320002013121600000010000000000000BRBRAPACNPR2123
012012122114BRAX11      010ISHARES BRAXCI           R$  000000000435900000000043590000000004359000000000435900000000043590000000004359000000000000000001000000000000006780000000000029554020000000000000009999123100000010000000000000BRBRAXCTF002100
012012122112BRCR11      010FII BC FUND CI           R$  000000001530000000000153990000000015300000000001536500000000153990000000015390000000001539900116000000000000006764000000000103932181000000000000009999123100000010000000000000BRBRCRCTF000124
012012122102BRFS3       010BRF FOODS   ON      NM   R$  000000000414000000000042680000000004136000000000422800000000042680000000004241000000000426805319000000000002082600000000008806197500000000000000009999123100000010000000000000BRBRFSACNOR8107
012012122196BRFS3F      020BRF FOODS   ON      NM   R$  000000000418000000000042970000000004180000000000421900000000042970000000004201000000000425000081000000000000002403000000000010141785000000000000009999123100000010000000000000BRBRFSACNOR8107
012012122162BRFS3T      030BRF FOODS   ON      NM031R$  000000000428000000000042810000000004280000000000428000000000042810000000000000000000000000000002000000000000001000000000000004280956000000000000009999123100000010000000000000BRBRFSACNOR8107
012012122102BRGE3       010ALFA CONSORCON           R$  000000000038100000000003810000000000381000000000038100000000003810000000000380000000000051600002000000000000001400000000000000533400000000000000009999123100000010000000000000BRBRGEACNOR6195
012012122102BRIN3       010BR INSURANCEON      NM   R$  000000000187500000000019430000000001875000000000191300000000019200000000001910000000000192001343000000000000382900000000000732672200000000000000009999123100000010000000000000BRBRINACNOR3103
012012122196BRIN3F      020BR INSURANCEON      NM   R$  000000000189300000000019280000000001721000000000182100000000018900000000001722000000000200000015000000000000000260000000000000473499000000000000009999123100000010000000000000BRBRINACNOR3103
012012122196BRIV3F      020ALFA INVEST ON           R$  000000000055000000000005500000000000550000000000055000000000005500000000000500000000000000000001000000000000000018000000000000009900000000000000009999123100000010000000000000BRBRIVACNOR6195
012012122102BRIV4       010ALFA INVEST PN           R$  000000000049500000000005600000000000495000000000049500000000005000000000000500000000000052500025000000000000134200000000000066555100000000000000009999123100000010000000000000BRBRIVACNPR3195
012012122102BRKM3       010BRASKEM     ON      N1   R$  000000000099000000000009900000000000979000000000098000000000009790000000000975000000000098000008000000000000022500000000000022068700000000000000009999123100000010000000000000BRBRKMACNOR1110
012012122162BRKM3T      030BRASKEM     ON      N1060R$  000000000099000000000009910000000000990000000000099000000000009910000000000000000000000000000002000000000000007000000000000006936832000000000000009999123100000010000000000000BRBRKMACNOR1110
012012122102BRKM5       010BRASKEM     PNA     N1   R$  000000000130800000000013170000000001296000000000130200000000013030000000001302000000000130304986000000000001380000000000001797316500000000000000009999123100000010000000000000BRBRKMACNPA4110
012012122196BRKM5F      020BRASKEM     PNA     N1   R$  000000000132000000000013200000000001296000000000130600000000013130000000001300000000000131900034000000000000000905000000000001181405000000000000009999123100000010000000000000BRBRKMACNPA4110
012012122162BRKM5T      030BRASKEM     PNA     N1017R$  000000000130000000000013030000000001300000000000130100000000013030000000000000000000000000000004000000000000016000000000000020822895000000000000009999123100000010000000000000BRBRKMACNPA4110
012012122162BRKM5T      030BRASKEM     PNA     N1031R$  000000000130900000000013100000000001309000000000130900000000013100000000000000000000000000000002000000000000002500000000000003273462000000000000009999123100000010000000000000BRBRKMACNPA4110
012012122162BRKM5T      030BRASKEM     PNA     N1060R$  000000000132300000000013240000000001314000000000132200000000013150000000000000000000000000000004000000000000004000000000000005288816000000000000009999123100000010000000000000BRBRKMACNPA4110
012012122178BRKMF16     070BRKM        PNA     N1000R$  000000000004100000000000410000000000041000000000004100000000000410000000000000000000000000000002000000000000009500000000000000389500000000000160002013061700000010000000000000BRBRKMACNPA4110
012012122182BRKMR40     080BRKME       PNA     N1000R$  000000000003000000000000300000000000030000000000003000000000000300000000000000000000000000000002000000000000009500000000000000285000000000000105002013061700000010000000000000BRBRKMACNPA4110
012012122182BRKMR43     080BRKME       PNA     N1000R$  000000000013800000000001380000000000138000000000013800000000001380000000000000000000000000000002000000000000009500000000000001311000000000000135002013061700000010000000000000BRBRKMACNPA4110
012012122102BRML3       010BR MALLS PARON      NM   R$  000000000269200000000027500000000002691000000000273300000000027430000000002733000000000274305842000000000001342300000000003669238400000000000000009999123100000010000000000000BRBRMLACNOR9104
012012122196BRML3F      020BR MALLS PARON      NM   R$  000000000272800000000028020000000002701000000000274300000000028020000000002701000000000280200034000000000000000969000000000002657968000000000000009999123100000010000000000000BRBRMLACNOR9104
012012122102BRPR3       010BR PROPERT  ON      NM   R$  000000000251900000000025700000000002495000000000254500000000025600000000002555000000000256004585000000000001091500000000002778141500000000000000009999123100000010000000000000BRBRPRACNOR9111
012012122196BRPR3F      020BR PROPERT  ON      NM   R$  000000000248100000000025650000000002481000000000253700000000025500000000002553000000000256400047000000000000002082000000000005285826000000000000009999123100000010000000000000BRBRPRACNOR9111
012012122162BRPR3T      030BR PROPERT  ON      NM017R$  000000000255100000000025560000000002551000000000255400000000025560000000000000000000000000000008000000000000002600000000000006642887000000000000009999123100000010000000000000BRBRPRACNOR9111
012012122102BRSR6       010BANRISUL    PNB ED  N1   R$  000000000158500000000016070000000001535000000000159300000000015950000000001593000000000159501906000000000001167900000000001861115500000000000000009999123100000010000000000000BRBRSRACNPB4130
012012122196BRSR6F      020BANRISUL    PNB ED  N1   R$  000000000158000000000015970000000001562000000000158000000000015950000000001571000000000160000015000000000000000494000000000000780600000000000000009999123100000010000000000000BRBRSRACNPB4130
012012122162BRSR6T      030BANRISUL    PNB ED  N1031R$  000000000159500000000016060000000001587000000000159600000000015880000000000000000000000000000014000000000000011000000000000017560023000000000000009999123100000010000000000000BRBRSRACNPB4130
012012122102BTOW3       010B2W VAREJO  ON      NM   R$  000000000175000000000017840000000001686000000000171800000000016940000000001691000000000169402988000000000000960800000000001650351700000000000000009999123100000010000000000000BRBTOWACNOR8105
012012122196BTOW3F      020B2W VAREJO  ON      NM   R$  000000000178000000000017800000000001656000000000171800000000017050000000001700000000000172000046000000000000001467000000000002517031000000000000009999123100000010000000000000BRBTOWACNOR8105
012012122162BTOW3T      030B2W VAREJO  ON      NM020R$  000000000171200000000017130000000001712000000000171200000000017130000000000000000000000000000002000000000000002900000000000004965267000000000000009999123100000010000000000000BRBTOWACNOR8105
012012122162BTOW3T      030B2W VAREJO  ON      NM031R$  000000000171800000000017230000000001718000000000172000000000017230000000000000000000000000000004000000000000008600000000000014794239000000000000009999123100000010000000000000BRBTOWACNOR8105
012012122102BTTL3       010BATTISTELLA ON           R$  000000000008700000000000870000000000084000000000008500000000000840000000000080000000000008500003000000000000003700000000000000316500000000000000009999123100000010000000000000BRBTTLACNOR0105
012012122102BTTL4       010BATTISTELLA PN           R$  000000000010600000000001080000000000106000000000010600000000001070000000000103000000000010700013000000000000066200000000000007076300000000000000009999123100000010000000000000BRBTTLACNPR7105
012012122102BVMF3       010BMFBOVESPA  ON      NM   R$  000000000137500000000013960000000001371000000000138000000000013780000000001377000000000137813869000000000005824400000000008043043300000000000000009999123100000010000000000000BRBVMFACNOR3123
012012122196BVMF3F      020BMFBOVESPA  ON      NM   R$  000000000138000000000013960000000001371000000000138000000000013730000000001373000000000138900092000000000000003244000000000004476745000000000000009999123100000010000000000000BRBVMFACNOR3123
012012122162BVMF3T      030BMFBOVESPA  ON      NM034R$  000000000138600000000013870000000001386000000000138600000000013870000000000000000000000000000002000000000000001000000000000001386860000000000000009999123100000010000000000000BRBVMFACNOR3123
012012122162BVMF3T      030BMFBOVESPA  ON      NM060R$  000000000139400000000013950000000001388000000000139300000000013910000000000000000000000000000006000000000000144500000000000201368234000000000000009999123100000010000000000000BRBVMFACNOR3123
012012122162BVMF3T      030BMFBOVESPA  ON      NM122R$  000000000140900000000014100000000001409000000000140900000000014100000000000000000000000000000002000000000000005000000000000007045862000000000000009999123100000010000000000000BRBVMFACNOR3123
012012122178BVMFA10     070BVMF        ON      NM000R$  000000000038400000000003920000000000377000000000038400000000003820000000000000000000000039200009000000000000002600000000000000999000000000000100002013012100000010000000000000BRBVMFACNOR3123
012012122178BVMFA11     070BVMF        ON      NM000R$  000000000028500000000002880000000000285000000000028700000000002880000000000256000000000000000003000000000000000800000000000000230100000000000110002013012100000010000000000000BRBVMFACNOR3123
012012122178BVMFA12     070BVMF        ON      NM000R$  000000000020500000000002070000000000194000000000020100000000001940000000000194000000000022000030000000000000025300000000000005087700000000000118902013012100000010000000000000BRBVMFACNOR3122
012012122178BVMFA13     070BVMF        ON      NM000R$  000000000008600000000001200000000000086000000000011000000000001070000000000104000000000010700261000000000000189200000000000020885700000000000128902013012100000010000000000000BRBVMFACNOR3122
012012122178BVMFA14     070BVMF  FM    ON      NM000R$  000000000005200000000000520000000000039000000000004200000000000410000000000039000000000004100317000000000000543100000000000023214600000000000138902013012100000010000000000000BRBVMFACNOR3122
012012122178BVMFA15     070BVMF  FM    ON      NM000R$  000000000001000000000000110000000000009000000000001000000000000100000000000009000000000001000088000000000000348200000000000003525600000000000150002013012100000010000000000000BRBVMFACNOR3123
012012122178BVMFA16     070BVMF        ON      NM000R$  000000000000200000000000020000000000001000000000000100000000000010000000000001000000000000200013000000000000061100000000000000077400000000000160002013012100000010000000000000BRBVMFACNOR3123
012012122178BVMFA39     070BVMF  FM    ON      NM000R$  000000000007800000000000780000000000070000000000007400000000000700000000000012000000000022500009000000000000014700000000000001096200000000000133902013012100000010000000000000BRBVMFACNOR3122
012012122178BVMFA40     070BVMF  FM    ON      NM000R$  000000000002500000000000270000000000022000000000002400000000000220000000000017000000000011100011000000000000023000000000000000571000000000000143902013012100000010000000000000BRBVMFACNOR3122
012012122178BVMFA41     070BVMF  FM    ON      NM000R$  000000000000300000000000050000000000003000000000000400000000000040000000000004000000000001500016000000000000046000000000000000229200000000000155002013012100000010000000000000BRBVMFACNOR3123
012012122178BVMFB12     070BVMF        ON      NM000R$  000000000019600000000001960000000000196000000000019600000000001960000000000150000000000000000005000000000000007600000000000001489600000000000120002013021800000010000000000000BRBVMFACNOR3123
012012122178BVMFB13     070BVMF        ON      NM000R$  000000000011200000000001120000000000112000000000011200000000001120000000000060000000000014500001000000000000000600000000000000067200000000000130002013021800000010000000000000BRBVMFACNOR3123
012012122178BVMFB14     070BVMF  FM    ON      NM000R$  000000000005500000000000640000000000051000000000005500000000000550000000000035000000000006500106000000000000205400000000000011454200000000000140002013021800000010000000000000BRBVMFACNOR3123
012012122178BVMFB15     070BVMF  FM    ON      NM000R$  000000000002300000000000230000000000019000000000002000000000000190000000000018000000000001900032000000000000080500000000000001610300000000000150002013021800000010000000000000BRBVMFACNOR3123
012012122178BVMFB39     070BVMF  FM    ON      NM000R$  000000000008300000000000880000000000082000000000008500000000000880000000000001000000000035500008000000000000014000000000000001190600000000000135002013021800000010000000000000BRBVMFACNOR3123
012012122178BVMFB40     070BVMF  FM    ON      NM000R$  000000000003700000000000370000000000034000000000003600000000000340000000000015000000000005000004000000000000005300000000000000192500000000000145002013021800000010000000000000BRBVMFACNOR3123
012012122178BVMFB41     070BVMF  FM    ON      NM000R$  000000000001200000000000120000000000011000000000001100000000000110000000000001000000000008800003000000000000003800000000000000042400000000000155002013021800000010000000000000BRBVMFACNOR3123
012012122182BVMFM12     080BVMFE       ON      NM000R$  000000000000300000000000030000000000002000000000000200000000000030000000000002000000000000300029000000000000081700000000000000222000000000000118902013012100000010000000000000BRBVMFACNOR3122
012012122182BVMFM13     080BVMFE FM    ON      NM000R$  000000000001400000000000140000000000010000000000001100000000000120000000000006000000000001300034000000000000108500000000000001257800000000000128902013012100000010000000000000BRBVMFACNOR3122
012012122182BVMFM14     080BVMFE FM    ON      NM000R$  000000000005000000000000500000000000039000000000004400000000000470000000000021000000000005100029000000000000036500000000000001622300000000000138902013012100000010000000000000BRBVMFACNOR3122
012012122182BVMFM38     080BVMFE       ON      NM000R$  000000000000700000000000070000000000005000000000000600000000000050000000000000000000000000700003000000000000004900000000000000030900000000000123902013012100000010000000000000BRBVMFACNOR3122
012012122182BVMFM39     080BVMFE FM    ON      NM000R$  000000000002900000000000290000000000024000000000002500000000000260000000000024000000000002800005000000000000011900000000000000307100000000000133902013012100000010000000000000BRBVMFACNOR3122
012012122182BVMFM40     080BVMFE FM    ON      NM000R$  000000000007500000000000770000000000072000000000007500000000000760000000000000000000000000000008000000000000020300000000000001522500000000000143902013012100000010000000000000BRBVMFACNOR3122
012012122182BVMFN12     080BVMFE       ON      NM000R$  000000000001000000000000100000000000010000000000001000000000000100000000000001000000000001000005000000000000025000000000000000250000000000000120002013021800000010000000000000BRBVMFACNOR3123
012012122182BVMFN13     080BVMFE FM    ON      NM000R$  000000000002500000000000280000000000025000000000002600000000000280000000000000000000000003400004000000000000010200000000000000265500000000000130002013021800000010000000000000BRBVMFACNOR3123
012012122182BVMFN14     080BVMFE FM    ON      NM000R$  000000000006000000000000630000000000060000000000006100000000000630000000000000000000000000000004000000000000013300000000000000817700000000000140002013021800000010000000000000BRBVMFACNOR3123
012012122182BVMFN39     080BVMFE FM    ON      NM000R$  000000000003900000000000410000000000038000000000003800000000000410000000000000000000000000000003000000000000008100000000000000315600000000000135002013021800000010000000000000BRBVMFACNOR3123
012012122182BVMFN40     080BVMFE FM    ON      NM000R$  000000000009100000000000910000000000091000000000009100000000000910000000000000000000000000000003000000000000009500000000000000864500000000000145002013021800000010000000000000BRBVMFACNOR3123
012012122196CAMB4F      020CAMBUCI     PN           R$  000000000019900000000001990000000000199000000000019900000000001990000000000198000000000021000001000000000000000001000000000000000199000000000000009999123100000010000000000000BRCAMBACNPR1116
012012122102CARD3       010CSU CARDSYSTON  EJ  NM   R$  000000000041800000000004200000000000402000000000040700000000004170000000000409000000000041700067000000000000159400000000000064907900000000000000009999123100000010000000000000BRCARDACNOR9105
012012122102CBMA4       010COBRASMA    PN           R$  000000000000700000000000070000000000006000000000000600000000000060000000000006000000000000700003000000000000200000000000000001220000000000000000009999123100000010000000000000BRCBMAACNPR1124
012012122196CBMA4F      020COBRASMA    PN           R$  000000000000800000000000080000000000008000000000000800000000000080000000000006000000000000700001000000000000000001000000000000000008000000000000009999123100000010000000000000BRCBMAACNPR1124
012012122108CCHI3       010CHIARELLI   ON           R$  000000000001200000000000120000000000011000000000001100000000000120000000000011000000000001300013000000000000200000000000000002320000000000000000009999123100000010000000000000BRCCHIACNOR5123
012012122108CCHI4       010CHIARELLI   PN           R$  000000000000700000000000080000000000007000000000000700000000000080000000000006000000000000800005000000000000050000000000000000370000000000000000009999123100000010000000000000BRCCHIACNPR2122
012012122102CCPR3       010CYRE COM-CCPON      NM   R$  000000000249900000000024990000000002499000000000249900000000024990000000002400000000000249900002000000000000008200000000000020491800000000000000009999123100000010000000000000BRCCPRACNOR9106
012012122102CCRO3       010CCR SA      ON      NM   R$  000000000186000000000018980000000001860000000000188000000000018790000000001879000000000188107651000000000002731100000000005135790500000000000000009999123100000010000000000000BRCCROACNOR2121
012012122196CCRO3F      020CCR SA      ON      NM   R$  000000000187500000000019000000000001861000000000188400000000019000000000001884000000000190000059000000000000001882000000000003546645000000000000009999123100000010000000000000BRCCROACNOR2121
012012122162CCRO3T      030CCR SA      ON      NM031R$  000000000190100000000019020000000001901000000000190100000000019020000000000000000000000000000002000000000000001300000000000002472144000000000000009999123100000010000000000000BRCCROACNOR2121
012012122178CCROB49     070CCRO        ON      NM000R$  000000000003000000000000300000000000030000000000003000000000000300000000000000000000000000000002000000000000001000000000000000030000000000000195002013021800000010000000000000BRCCROACNOR2121
012012122102CCXC3       010CCX CARVAO  ON      NM   R$  000000000021500000000002150000000000207000000000020900000000002070000000000207000000000020800212000000000000304200000000000063838300000000000000009999123100000010000000000000BRCCXCACNOR5100
012012122196CEDO3F      020CEDRO       ON      N1   R$  000000000097000000000009700000000000970000000000097000000000009700000000000700000000000000000003000000000000000059000000000000057230000000000000009999123100000010000000000000BRCEDOACNOR8093
012012122112CEOC11B     010FII CEO CCP CI      MB   R$  000000001038900000000104850000000010300000000001041700000000104080000000010408000000001045100075000000000000006033000000000062846447000000000000009999123100000010000000000000BRCEOCCTF003101
012012122196CEPE6F      020CELPE       PNB          R$  000000000360000000000036000000000003600000000000360000000000036000000000003400000000000360000001000000000000000001000000000000003600000000000000009999123100000010000000000000BRCEPEACNPB4150
012012122102CESP3       010CESP        ON      N1   R$  000000000149500000000014950000000001491000000000149300000000014910000000001490000000000150000003000000000000000400000000000000597200000000000000009999123100000010000000000000BRCESPACNOR3157
012012122102CESP5       010CESP        PNA     N1   R$  000000000185100000000018510000000001800000000000183500000000018110000000001810000000000199400006000000000000000600000000000001101300000000000000009999123100000010000000000000BRCESPACNPA6107
012012122102CESP6       010CESP        PNB     N1   R$  000000000180400000000018480000000001784000000000182400000000018260000000001826000000000182803168000000000001149800000000002097638200000000000000009999123100000010000000000000BRCESPACNPB4116
012012122196CESP6F      020CESP        PNB     N1   R$  000000000181500000000018690000000001800000000000182500000000018650000000001805000000000186500028000000000000000863000000000001575816000000000000009999123100000010000000000000BRCESPACNPB4116
012012122162CESP6T      030CESP        PNB     N1020R$  000000000183300000000018340000000001833000000000183300000000018340000000000000000000000000000002000000000000010000000000000018331214000000000000009999123100000010000000000000BRCESPACNPB4116
012012122162CESP6T      030CESP        PNB     N1031R$  000000000183400000000018350000000001834000000000183400000000018350000000000000000000000000000002000000000000004000000000000007338329000000000000009999123100000010000000000000BRCESPACNPB4116
012012122162CESP6T      030CESP        PNB     N1120R$  000000000186700000000018680000000001867000000000186700000000018680000000000000000000000000000002000000000000180000000000000336108168000000000000009999123100000010000000000000BRCESPACNPB4116
012012122178CESPB18     070CESP        PNB     N1000R$  000000000009700000000000970000000000097000000000009700000000000970000000000095000000000000000002000000000000000500000000000000048500000000000180002013021800000010000000000000BRCESPACNPB4116
012012122178CESPB22     070CESP        PNB     N1000R$  000000000001400000000000140000000000014000000000001400000000000140000000000000000000000000000002000000000000000500000000000000007000000000000220002013021800000010000000000000BRCESPACNPB4116
012012122182CESPN14     080CESPE       PNB     N1000R$  000000000002900000000000290000000000029000000000002900000000000290000000000000000000000002900003000000000000000600000000000000017400000000000140002013021800000010000000000000BRCESPACNPB4116
012012122102CGAS3       010COMGAS      ON           R$  000000000524000000000054000000000005240000000000530900000000053990000000005200000000000540000009000000000000007600000000000040350100000000000000009999123100000010000000000000BRCGASACNOR0132
012012122196CGAS3F      020COMGAS      ON           R$  000000000490000000000050990000000004900000000000497400000000050990000000004500000000000534800002000000000000000008000000000000039797000000000000009999123100000010000000000000BRCGASACNOR0132
012012122102CGAS5       010COMGAS      PNA          R$  000000000572400000000059990000000005724000000000583500000000058500000000005835000000000585000319000000000000275000000000001604862100000000000000009999123100000010000000000000BRCGASACNPA3129
012012122196CGAS5F      020COMGAS      PNA          R$  000000000573100000000058990000000005731000000000578700000000058250000000005731000000000592000034000000000000000961000000000005562031000000000000009999123100000010000000000000BRCGASACNPA3129
012012122102CGRA3       010GRAZZIOTIN  ON  EJ       R$  000000000161700000000016180000000001600000000000160500000000016000000000001415000000000160000011000000000000010300000000000016533700000000000000009999123100000010000000000000BRCGRAACNOR2061
012012122102CGRA4       010GRAZZIOTIN  PN  EJ       R$  000000000154600000000015950000000001545000000000156100000000015610000000001560000000000156500025000000000000014100000000000022019500000000000000009999123100000010000000000000BRCGRAACNPR9061
012012122102CIEL3       010CIELO       ON      NM   R$  000000000542800000000055000000000005422000000000546600000000055000000000005463000000000550003599000000000001758700000000009614227900000000000000009999123100000010000000000000BRCIELACNOR3109
012012122196CIEL3F      020CIELO       ON      NM   R$  000000000551900000000055190000000005380000000000546000000000054570000000005442000000000549800069000000000000001931000000000010556273000000000000009999123100000010000000000000BRCIELACNOR3109
012012122162CIEL3T      030CIELO       ON      NM060R$  000000000552600000000055270000000005511000000000551400000000055120000000000000000000000000000006000000000000570000000000003143186052000000000000009999123100000010000000000000BRCIELACNOR3109
012012122178CIELA61     070CIEL        ON      NM000R$  000000000001500000000000160000000000015000000000001500000000000160000000000000000000000000000003000000000000050000000000000000753200000000000610002013012100000010000000000000BRCIELACNOR3109
012012122178CIELB59     070CIEL        ON      NM000R$  000000000006100000000000610000000000060000000000006000000000000610000000000000000000000000000004000000000000660000000000000039976200000000000590002013021800000010000000000000BRCIELACNOR3109
012012122178CIELF60     070CIEL        ON      NM000R$  000000000018600000000001860000000000186000000000018600000000001860000000000000000000000000000002000000000000005000000000000000930000000000000600002013061700000010000000000000BRCIELACNOR3109
012012122182CIELM53     080CIELE       ON      NM000R$  000000000005600000000000560000000000056000000000005600000000000560000000000000000000000000000001000000000000000200000000000000011200000000000530002013012100000010000000000000BRCIELACNOR3109
012012122182CIELN50     080CIELE       ON      NM000R$  000000000004600000000000460000000000046000000000004600000000000460000000000000000000000000000003000000000000660000000000000030360000000000000500002013021800000010000000000000BRCIELACNOR3109
012012122182CIELN53     080CIELE       ON      NM000R$  000000000011400000000001140000000000114000000000011400000000001140000000000000000000000000000003000000000000660000000000000075240000000000000530002013021800000010000000000000BRCIELACNOR3109
012012122182CIELR40     080CIELE       ON      NM000R$  000000000001800000000000180000000000018000000000001800000000000180000000000000000000000000000002000000000000005000000000000000090000000000000400002013061700000010000000000000BRCIELACNOR3109
012012122182CIELR47     080CIELE       ON      NM000R$  000000000009300000000000930000000000093000000000009300000000000930000000000000000000000000000002000000000000005000000000000000465000000000000470002013061700000010000000000000BRCIELACNOR3109
012012122102CIQU3       010CACIQUE     ON           R$  000000000060200000000006020000000000602000000000060200000000006020000000000602000000000080000002000000000000000200000000000000120400000000000000009999123100000010000000000000BRCIQUACNOR8156
012012122102CLSC4       010CELESC      PN      N2   R$  000000000241100000000024110000000002360000000000238400000000023870000000002387000000000243800126000000000000264000000000000629551700000000000000009999123100000010000000000000BRCLSCACNPR3107
012012122196CLSC4F      020CELESC      PN      N2   R$  000000000239100000000024570000000002370000000000240000000000023700000000002357000000000252000005000000000000000200000000000000480171000000000000009999123100000010000000000000BRCLSCACNPR3107
012012122158CMGR4       010CEMAT       PN           R$  000000000040000000000004000000000000400000000000040000000000004000000000000380000000000049800008000000000000009000000000000003600000000000000000009999123100000010000000000000BRCMGRACNPR4114
012012122102CMIG3       010CEMIG       ON      N1   R$  000000000237000000000026200000000002365000000000252800000000025750000000002575000000000258001138000000000000514500000000001301014900000000000000009999123100000010000000000000BRCMIGACNOR6206
012012122196CMIG3F      020CEMIG       ON      N1   R$  000000000240000000000026000000000002400000000000253600000000025900000000002585000000000259000046000000000000001174000000000002977810000000000000009999123100000010000000000000BRCMIGACNOR6206
012012122162CMIG3T      030CEMIG       ON      N1031R$  000000000248200000000024830000000002482000000000248200000000024830000000000000000000000000000002000000000000001000000000000002482103000000000000009999123100000010000000000000BRCMIGACNOR6206
012012122162CMIG3T      030CEMIG       ON      N1180R$  000000000266900000000026700000000002669000000000266900000000026700000000000000000000000000000002000000000000003800000000000010144199000000000000009999123100000010000000000000BRCMIGACNOR6206
012012122102CMIG4       010CEMIG       PN      N1   R$  000000000270000000000027250000000002655000000000270000000000027150000000002713000000000271514875000000000015161000000000040947522400000000000000009999123100000010000000000000BRCMIGACNPR3206
012012122196CMIG4F      020CEMIG       PN      N1   R$  000000000257500000000027250000000002575000000000269300000000027250000000002716000000000272500359000000000000011127000000000029972569000000000000009999123100000010000000000000BRCMIGACNPR3206
012012122162CMIG4S      030CEMIG       PN      N1060R$  000000000273200000000027330000000002732000000000273200000000027330000000000000000000000000000002000000000000006600000000000018034254000000000000009999123100000010000000000000BRCMIGACNPR3206
012012122162CMIG4T      030CEMIG       PN      N1060R$  000000000271500000000027430000000002680000000000272200000000027430000000000000000000000000000036000000000000066200000000000180225844000000000000009999123100000010000000000000BRCMIGACNPR3206
012012122162CMIG4T      030CEMIG       PN      N1090R$  000000000274000000000027480000000002710000000000273400000000027460000000000000000000000000000016000000000000012900000000000035276829000000000000009999123100000010000000000000BRCMIGACNPR3206
012012122162CMIG4T      030CEMIG       PN      N1122R$  000000000273300000000027340000000002723000000000272900000000027320000000000000000000000000000006000000000000002500000000000006824276000000000000009999123100000010000000000000BRCMIGACNPR3206
012012122162CMIG4T      030CEMIG       PN      N1150R$  000000000278300000000027850000000002783000000000278400000000027850000000000000000000000000000004000000000000004000000000000011137778000000000000009999123100000010000000000000BRCMIGACNPR3206
012012122162CMIG4T      030CEMIG       PN      N1180R$  000000000279300000000027940000000002766000000000278800000000027670000000000000000000000000000008000000000000020000000000000055765695000000000000009999123100000010000000000000BRCMIGACNPR3206
012012122162CMIG4T      030CEMIG       PN      N1017R$  000000000267600000000027260000000002676000000000267900000000027260000000000000000000000000000008000000000000035700000000000095646825000000000000009999123100000010000000000000BRCMIGACNPR3206
012012122162CMIG4T      030CEMIG       PN      N1031R$  000000000269300000000027380000000002693000000000270200000000027230000000000000000000000000000026000000000000032100000000000086751981000000000000009999123100000010000000000000BRCMIGACNPR3206
012012122178CMIGA25     070CMIG        PN      N1000R$  000000000017800000000002600000000000178000000000023100000000002280000000000165000000000000000043000000000000045900000000000010633000000000000250002013012100000010000000000000BRCMIGACNPR3206
012012122178CMIGA26     070CMIG        PN      N1000R$  000000000012500000000001830000000000111000000000013400000000001650000000000135000000000018000845000000000000362400000000000048890900000000000260002013012100000010000000000000BRCMIGACNPR3206
012012122178CMIGA27     070CMIG        PN      N1000R$  000000000006500000000001200000000000065000000000009800000000000700000000000070000000000012000043000000000000068800000000000006749000000000000270002013012100000010000000000000BRCMIGACNPR3206
012012122178CMIGA28     070CMIG        PN      N1000R$  000000000003500000000000800000000000035000000000004300000000000500000000000030000000000007500012000000000000171600000000000007420500000000000280002013012100000010000000000000BRCMIGACNPR3206
012012122178CMIGA29     070CMIG        PN      N1000R$  000000000002500000000000500000000000025000000000004700000000000500000000000000000000000005000009000000000000033000000000000001575000000000000290002013012100000010000000000000BRCMIGACNPR3206
012012122178CMIGA30     070CMIG        PN      N1000R$  000000000001500000000000250000000000015000000000002300000000000200000000000000000000000002000009000000000000064900000000000001517000000000000300002013012100000010000000000000BRCMIGACNPR3206
012012122178CMIGB29     070CMIG        PN      N1000R$  000000000005800000000000580000000000045000000000005500000000000450000000000000000000000000000007000000000000102000000000000005692000000000000290002013021800000010000000000000BRCMIGACNPR3206
012012122182CMIGM20     080CMIGE       PN      N1000R$  000000000000200000000000020000000000002000000000000200000000000020000000000000000000000000000002000000000000037000000000000000074000000000000200002013012100000010000000000000BRCMIGACNPR3206
012012122182CMIGM23     080CMIGE       PN      N1000R$  000000000002500000000000250000000000025000000000002500000000000250000000000000000000000000000002000000000000037000000000000000925000000000000230002013012100000010000000000000BRCMIGACNPR3206
012012122112CNES11B     010FII CENESP  CI  ER  MB   R$  000000001315000000000132450000000013149000000001319700000000132000000000013150000000001326000013000000000000000880000000000011613860000000000000009999123100000010000000000000BRCNESCTF001117
012012122102COCE3       010COELCE      ON           R$  000000000452300000000045230000000004449000000000445000000000044490000000004270000000000445000005000000000000005200000000000023142300000000000000009999123100000010000000000000BRCOCEACNOR0131
012012122102COCE5       010COELCE      PNA          R$  000000000441600000000045380000000004300000000000435400000000043450000000004345000000000436700476000000000000292700000000001274443400000000000000009999123100000010000000000000BRCOCEACNPA3132
012012122196COCE5F      020COELCE      PNA          R$  000000000443000000000044300000000004300000000000433100000000043300000000004330000000000434500013000000000000000160000000000000693100000000000000009999123100000010000000000000BRCOCEACNPA3132
012012122102CPFE3       010CPFL ENERGIAON      NM   R$  000000000217000000000021980000000002159000000000218200000000021920000000002190000000000219203505000000000000622800000000001359073300000000000000009999123100000010000000000000BRCPFEACNOR0120
012012122196CPFE3F      020CPFL ENERGIAON      NM   R$  000000000218900000000022710000000002164000000000218500000000022000000000002169000000000220000043000000000000001106000000000002417916000000000000009999123100000010000000000000BRCPFEACNOR0120
012012122102CPLE3       010COPEL       ON      N1   R$  000000000252200000000025840000000002505000000000258000000000025840000000002520000000000258400030000000000000058600000000000151219000000000000000009999123100000010000000000000BRCPLEACNOR8126
012012122102CPLE6       010COPEL       PNB     N1   R$  000000000320200000000032520000000003181000000000322700000000032350000000003232000000000323501419000000000000542300000000001750368500000000000000009999123100000010000000000000BRCPLEACNPB9123
012012122196CPLE6F      020COPEL       PNB     N1   R$  000000000319000000000032710000000003163000000000321200000000032710000000003180000000000327100023000000000000000835000000000002682803000000000000009999123100000010000000000000BRCPLEACNPB9123
012012122102CRDE3       010CR2         ON      NM   R$  000000000047200000000004850000000000472000000000048000000000004850000000000480000000000049000005000000000000010200000000000004901700000000000000009999123100000010000000000000BRCRDEACNOR1108
012012122102CREM3       010CREMER      ON      NM   R$  000000000132000000000013270000000001268000000000127500000000012680000000001263000000000126800158000000000001051300000000001341221500000000000000009999123100000010000000000000BRCREMACNOR2164
012012122196CREM3F      020CREMER      ON      NM   R$  000000000127500000000012750000000001269000000000127100000000012690000000001269000000000140900005000000000000000089000000000000113165000000000000009999123100000010000000000000BRCREMACNOR2164
012012122162CREM3T      030CREMER      ON      NM060R$  000000000128700000000012880000000001287000000000128700000000012880000000000000000000000000000002000000000000000800000000000001029690000000000000009999123100000010000000000000BRCREMACNOR2164
012012122102CRIV3       010ALFA FINANC ON           R$  000000000050900000000005090000000000509000000000050900000000005090000000000000000000000051000003000000000000008900000000000004530100000000000000009999123100000010000000000000BRCRIVACNOR4188
012012122102CRIV4       010ALFA FINANC PN           R$  000000000047000000000004790000000000460000000000046000000000004600000000000455000000000046000064000000000000346500000000000159736100000000000000009999123100000010000000000000BRCRIVACNPR1188
012012122102CRUZ3       010SOUZA CRUZ  ON           R$  000000000307900000000031250000000003046000000000309800000000030800000000003080000000000308304155000000000001289600000000003995646700000000000000009999123100000010000000000000BRCRUZACNOR0242
012012122196CRUZ3F      020SOUZA CRUZ  ON           R$  000000000314000000000031940000000003050000000000310400000000031100000000003091000000000319300085000000000000002380000000000007388258000000000000009999123100000010000000000000BRCRUZACNOR0242
012012122102CSAN3       010COSAN       ON      NM   R$  000000000416600000000042370000000004124000000000419500000000041850000000004181000000000418503536000000000000918400000000003853367000000000000000009999123100000010000000000000BRCSANACNOR6107
012012122196CSAN3F      020COSAN       ON      NM   R$  000000000422000000000042790000000004126000000000419600000000042790000000004187000000000427900056000000000000001715000000000007197636000000000000009999123100000010000000000000BRCSANACNOR6107
012012122162CSAN3T      030COSAN       ON      NM060R$  000000000424000000000042690000000004240000000000425500000000042590000000000000000000000000000014000000000000100000000000000425560932000000000000009999123100000010000000000000BRCSANACNOR6107
012012122162CSAN3T      030COSAN       ON      NM125R$  000000000428600000000042870000000004286000000000428600000000042870000000000000000000000000000002000000000000002000000000000008573674000000000000009999123100000010000000000000BRCSANACNOR6107
012012122112CSBC11      010FII CSHG BC CI           R$  000000011720000000001202000000000117200000000011819700000001180000000000118000000000011990000017000000000000000152000000000017966005000000000000009999123100000010000000000000BRCSBCCTF000132
012012122102CSMG3       010COPASA      ON  INT NM   R$  000000000436300000000044120000000004359000000000438000000000043750000000004373000000000437501384000000000000271100000000001187530900000000000000009999123100000010000000000000BRCSMGACNOR5124
012012122196CSMG3F      020COPASA      ON  INT NM   R$  000000000441200000000044120000000004080000000000434900000000043000000000004376000000000440100036000000000000000749000000000003257639000000000000009999123100000010000000000000BRCSMGACNOR5124
012012122114CSMO11      010ISHARES CSMOCI           R$  000000000468000000000046800000000004662000000000467000000000046710000000004658000000000500000005000000000000001180000000000005510940000000000000009999123100000010000000000000BRCSMOCTF002100
012012122102CSNA3       010SID NACIONALON           R$  000000000115000000000011810000000001144000000000116600000000011730000000001172000000000117310101000000000005865500000000006842804900000000000000009999123100000010000000000000BRCSNAACNOR6240
012012122196CSNA3F      020SID NACIONALON           R$  000000000120500000000012050000000001155000000000117100000000011800000000001161000000000118000081000000000000002607000000000003054799000000000000009999123100000010000000000000BRCSNAACNOR6240
012012122162CSNA3T      030SID NACIONALON        017R$  000000000116600000000011670000000001166000000000116600000000011670000000000000000000000000000002000000000000010000000000000011661401000000000000009999123100000010000000000000BRCSNAACNOR6240
012012122162CSNA3T      030SID NACIONALON        031R$  000000000115500000000011790000000001155000000000117500000000011790000000000000000000000000000014000000000000024300000000000028558542000000000000009999123100000010000000000000BRCSNAACNOR6240
012012122162CSNA3T      030SID NACIONALON        060R$  000000000118300000000011840000000001183000000000118300000000011840000000000000000000000000000002000000000000003900000000000004615594000000000000009999123100000010000000000000BRCSNAACNOR6240
012012122178CSNAA10     070CSNA        ON        000R$  000000000018300000000001890000000000173000000000018000000000001880000000000000000000000000000102000000000000022900000000000004129800000000000100002013012100000010000000000000BRCSNAACNOR6240
012012122178CSNAA11     070CSNA        ON        000R$  000000000008600000000000920000000000080000000000008700000000000920000000000082000000000000000008000000000000001400000000000000123000000000000110002013012100000010000000000000BRCSNAACNOR6240
012012122178CSNAA12     070CSNA  FM    ON        000R$  000000000004400000000000440000000000035000000000003800000000000360000000000032000000000004000065000000000000096200000000000003678400000000000120002013012100000010000000000000BRCSNAACNOR6240
012012122178CSNAA13     070CSNA  FM    ON        000R$  000000000001700000000000170000000000010000000000001100000000000100000000000010000000000001200023000000000000021600000000000000245800000000000130002013012100000010000000000000BRCSNAACNOR6240
012012122178CSNAA36     070CSNA        ON        000R$  000000000014000000000001400000000000134000000000013600000000001390000000000000000000000000000018000000000000001800000000000000246000000000000105002013012100000010000000000000BRCSNAACNOR6240
012012122178CSNAA37     070CSNA  FM    ON        000R$  000000000007000000000000700000000000059000000000006200000000000600000000000000000000000000000009000000000000016100000000000001011500000000000115002013012100000010000000000000BRCSNAACNOR6240
012012122178CSNAA38     070CSNA  FM    ON        000R$  000000000002200000000000230000000000020000000000002000000000000210000000000000000000000000000022000000000000036000000000000000754900000000000125002013012100000010000000000000BRCSNAACNOR6240
012012122178CSNAA39     070CSNA  FM    ON        000R$  000000000000600000000000060000000000006000000000000600000000000060000000000000000000000000000001000000000000002100000000000000012600000000000135002013012100000010000000000000BRCSNAACNOR6240
012012122178CSNAB11     070CSNA        ON        000R$  000000000012000000000001200000000000120000000000012000000000001200000000000000000000000000000001000000000000000500000000000000060000000000000110002013021800000010000000000000BRCSNAACNOR6240
012012122178CSNAB12     070CSNA  FM    ON        000R$  000000000006600000000000660000000000061000000000006400000000000630000000000000000000000000000013000000000000024700000000000001591300000000000120002013021800000010000000000000BRCSNAACNOR6240
012012122178CSNAB13     070CSNA  FM    ON        000R$  000000000002700000000000300000000000026000000000002700000000000300000000000000000000000000000005000000000000002000000000000000055700000000000130002013021800000010000000000000BRCSNAACNOR6240
012012122178CSNAB37     070CSNA  FM    ON        000R$  000000000008600000000000860000000000085000000000008500000000000850000000000000000000000000000002000000000000004100000000000000350600000000000115002013021800000010000000000000BRCSNAACNOR6240
012012122178CSNAB38     070CSNA  FM    ON        000R$  000000000004100000000000420000000000040000000000004100000000000420000000000000000000000006700005000000000000008000000000000000329000000000000125002013021800000010000000000000BRCSNAACNOR6240
012012122178CSNAB39     070CSNA  FM    ON        000R$  000000000001700000000000170000000000017000000000001700000000000170000000000000000000000000000001000000000000002100000000000000035700000000000135002013021800000010000000000000BRCSNAACNOR6240
012012122182CSNAM11     080CSNAE FM    ON        000R$  000000000003100000000000320000000000023000000000002700000000000270000000000000000000000007000287000000000000354400000000000009701700000000000110002013012100000010000000000000BRCSNAACNOR6240
012012122182CSNAM12     080CSNAE FM    ON        000R$  000000000006500000000000750000000000064000000000006700000000000690000000000000000000000000000042000000000000060900000000000004097700000000000120002013012100000010000000000000BRCSNAACNOR6240
012012122182CSNAM37     080CSNAE FM    ON        000R$  000000000004200000000000460000000000040000000000004500000000000430000000000000000000000000000063000000000000399800000000000018153300000000000115002013012100000010000000000000BRCSNAACNOR6240
012012122182CSNAM38     080CSNAE FM    ON        000R$  000000000009700000000001070000000000096000000000010000000000001000000000000000000000000000000055000000000000073100000000000007347400000000000125002013012100000010000000000000BRCSNAACNOR6240
012012122182CSNAN11     080CSNAE FM    ON        000R$  000000000004600000000000460000000000046000000000004600000000000460000000000000000000000000000001000000000000002100000000000000096600000000000110002013021800000010000000000000BRCSNAACNOR6240
012012122182CSNAN12     080CSNAE FM    ON        000R$  000000000008700000000000940000000000084000000000008700000000000880000000000000000000000000000169000000000000138100000000000012019400000000000120002013021800000010000000000000BRCSNAACNOR6240
012012122182CSNAN37     080CSNAE FM    ON        000R$  000000000006600000000000670000000000066000000000006600000000000670000000000000000000000009100002000000000000004100000000000000272600000000000115002013021800000010000000000000BRCSNAACNOR6240
012012122182CSNAN38     080CSNAE FM    ON        000R$  000000000011600000000001210000000000115000000000011700000000001210000000000000000000000000000012000000000000022000000000000002593000000000000125002013021800000010000000000000BRCSNAACNOR6240
012012122102CSRN3       010COSERN      ON           R$  000000000100000000000010000000000001000000000000100000000000010000000000000905000000000100000001000000000000000100000000000000100000000000000000009999123100000010000000000000BRCSRNACNOR0146
012012122102CTAX3       010CONTAX      ON           R$  000000000255000000000025500000000002550000000000255000000000025500000000000000000000000500000004000000000000021300000000000054315000000000000000009999123100000010000000000000BRCTAXACNOR3112
012012122102CTAX4       010CONTAX      PN           R$  000000000243900000000025500000000002408000000000250400000000025500000000002437000000000255000192000000000000139900000000000350382500000000000000009999123100000010000000000000BRCTAXACNPR0113
012012122196CTAX4F      020CONTAX      PN           R$  000000000245000000000024990000000002300000000000237600000000024990000000002301000000000249900008000000000000000350000000000000831670000000000000009999123100000010000000000000BRCTAXACNPR0113
012012122102CTIP3       010CETIP       ON      NM   R$  000000000250900000000025470000000002500000000000252900000000025340000000002534000000000253503670000000000000858000000000002170626200000000000000009999123100000010000000000000BRCTIPACNOR2114
012012122196CTIP3F      020CETIP       ON      NM   R$  000000000250000000000025990000000002500000000000253300000000025390000000002512000000000259900041000000000000001467000000000003715646000000000000009999123100000010000000000000BRCTIPACNOR2114
012012122162CTIP3T      030CETIP       ON      NM017R$  000000000252800000000025290000000002528000000000252800000000025290000000000000000000000000000002000000000000002000000000000005057114000000000000009999123100000010000000000000BRCTIPACNOR2114
012012122162CTIP3T      030CETIP       ON      NM031R$  000000000255200000000025530000000002543000000000254800000000025440000000000000000000000000000004000000000000000600000000000001528845000000000000009999123100000010000000000000BRCTIPACNOR2114
012012122162CTIP3T      030CETIP       ON      NM122R$  000000000257600000000025770000000002576000000000257600000000025770000000000000000000000000000004000000000000078400000000000201998384000000000000009999123100000010000000000000BRCTIPACNOR2114
012012122178CTIPF56     070CTIP        ON      NM000R$  000000000016100000000001620000000000161000000000016100000000001620000000000000000000000000000003000000000000016000000000000002584900000000000265002013061700000010000000000000BRCTIPACNOR2114
012012122182CTIPM25     080CTIPE       ON      NM000R$  000000000005200000000000550000000000052000000000005300000000000550000000000000000000000000000002000000000000000600000000000000032100000000000249402013012100000010000000000000BRCTIPACNOR2113
012012122182CTIPR20     080CTIPE       ON      NM000R$  000000000003000000000000300000000000030000000000003000000000000300000000000000000000000000000002000000000000016000000000000000480000000000000200002013061700000010000000000000BRCTIPACNOR2114
012012122182CTIPR22     080CTIPE       ON      NM000R$  000000000007200000000000720000000000072000000000007200000000000720000000000000000000000000000002000000000000016000000000000001152000000000000220002013061700000010000000000000BRCTIPACNOR2114
012012122102CTKA4       010KARSTEN     PN           R$  000000000013600000000001530000000000136000000000014600000000001460000000000146000000000015500018000000000000005500000000000000803300000000000000009999123100000010000000000000BRCTKAACNPR7041
012012122102CTNM3       010COTEMINAS   ON           R$  000000000031300000000003220000000000313000000000031600000000003220000000000322000000000034500002000000000000000300000000000000094800000000000000009999123100000010000000000000BRCTNMACNOR9129
012012122102CTNM4       010COTEMINAS   PN           R$  000000000031500000000003150000000000299000000000030900000000003130000000000308000000000031300070000000000000114000000000000035335600000000000000009999123100000010000000000000BRCTNMACNPR6128
012012122162CTNM4T      030COTEMINAS   PN        060R$  000000000030300000000003040000000000303000000000030300000000003040000000000000000000000000000002000000000000003000000000000000909900000000000000009999123100000010000000000000BRCTNMACNPR6128
012012122102CTSA3       010SANTANENSE  ON  ED       R$  000000000047000000000005050000000000470000000000047600000000004750000000000470000000000047500005000000000000000900000000000000428500000000000000009999123100000010000000000000BRCTSAACNOR3050
012012122112CXTL11      010FII CX TRX  CI           R$  000000010200000000001021000000000100004000000010077300000001000040000000100100000000010210000009000000000000000054000000000005441789000000000000009999123100000010000000000000BRCXTLCTF003112
012012122102CYRE3       010CYRELA REALTON      NM   R$  000000000177500000000017930000000001770000000000178300000000017900000000001786000000000179105256000000000001453700000000002592085500000000000000009999123100000010000000000000BRCYREACNOR7124
012012122196CYRE3F      020CYRELA REALTON      NM   R$  000000000179100000000018750000000001761000000000178300000000017850000000001760000000000178900025000000000000000665000000000001186376000000000000009999123100000010000000000000BRCYREACNOR7124
012012122162CYRE3T      030CYRELA REALTON      NM031R$  000000000179000000000017910000000001790000000000179000000000017910000000000000000000000000000002000000000000002000000000000003581464000000000000009999123100000010000000000000BRCYREACNOR7124
012012122178CYREA18     070CYRE  FM    ON      NM000R$  000000000005900000000000590000000000059000000000005900000000000590000000000000000000000007100001000000000000003000000000000000177000000000000180002013012100000010000000000000BRCYREACNOR7124
012012122178CYREA19     070CYRE  FM    ON      NM000R$  000000000001900000000000190000000000019000000000001900000000000190000000000000000000000000000001000000000000000400000000000000007600000000000190002013012100000010000000000000BRCYREACNOR7124
012012122178CYREA44     070CYRE  FM    ON      NM000R$  000000000003500000000000360000000000035000000000003500000000000360000000000000000000000005200002000000000000006000000000000000213000000000000185002013012100000010000000000000BRCYREACNOR7124
012012122178CYREB17     070CYRE  FM    ON      NM000R$  000000000015300000000001560000000000146000000000014900000000001470000000000000000000000000000013000000000000038400000000000005739900000000000170002013021800000010000000000000BRCYREACNOR7124
012012122178CYREB43     070CYRE  FM    ON      NM000R$  000000000011500000000001150000000000114000000000011400000000001140000000000000000000000000000004000000000000012000000000000001374000000000000175002013021800000010000000000000BRCYREACNOR7124
012012122178CYREF21     070CYRE        ON      NM000R$  000000000006000000000000600000000000060000000000006000000000000600000000000000000000000000000002000000000000013000000000000000780000000000000210002013061700000010000000000000BRCYREACNOR7124
012012122182CYREM18     080CYREE FM    ON      NM000R$  000000000007100000000000710000000000071000000000007100000000000710000000000000000000000000000001000000000000003000000000000000213000000000000180002013012100000010000000000000BRCYREACNOR7124
012012122182CYREM43     080CYREE FM    ON      NM000R$  000000000005000000000000500000000000050000000000005000000000000500000000000000000000000000000001000000000000003000000000000000150000000000000175002013012100000010000000000000BRCYREACNOR7124
012012122182CYREM44     080CYREE FM    ON      NM000R$  000000000009700000000000970000000000097000000000009700000000000970000000000000000000000000000001000000000000003000000000000000291000000000000185002013012100000010000000000000BRCYREACNOR7124
012012122182CYREN18     080CYREE FM    ON      NM000R$  000000000009500000000000990000000000091000000000009500000000000930000000000000000000000000000005000000000000015000000000000001428000000000000180002013021800000010000000000000BRCYREACNOR7124
012012122182CYREN43     080CYREE FM    ON      NM000R$  000000000007500000000000750000000000075000000000007500000000000750000000000000000000000000000001000000000000003000000000000000225000000000000175002013021800000010000000000000BRCYREACNOR7124
012012122182CYREN44     080CYREE FM    ON      NM000R$  000000000012000000000001240000000000117000000000012000000000001210000000000000000000000000000008000000000000023800000000000002862600000000000185002013021800000010000000000000BRCYREACNOR7124
012012122182CYRER15     080CYREE       ON      NM000R$  000000000006600000000000660000000000066000000000006600000000000660000000000000000000000000000002000000000000013000000000000000858000000000000150002013061700000010000000000000BRCYREACNOR7124
012012122182CYRER17     080CYREE       ON      NM000R$  000000000012600000000001260000000000126000000000012600000000001260000000000000000000000000000002000000000000013000000000000001638000000000000170002013061700000010000000000000BRCYREACNOR7124
012012122102CZLT11      010COSAN LTD   DR3          R$  000000000355800000000036170000000003511000000000356300000000036000000000003600000000000370001506000000000000379800000000001353363100000000000000009999123100000010000000000000BRCZLTBDR009104
012012122102DAGB11      010DUFRY AG    DR3          R$  000000002717600000000277000000000026600000000002727400000000277000000000027010000000002770000411000000000000023129000000000630821788000000000000009999123100000010000000000000BRDAGBBDR008100
012012122162DAGB11T     030DUFRY AG    DR3       020R$  000000002780800000000278090000000027808000000002780800000000278090000000000000000000000000000002000000000000000300000000000008342409000000000000009999123100000010000000000000BRDAGBBDR008100
012012122102DASA3       010DASA        ON      NM   R$  000000000132000000000013470000000001307000000000132200000000013150000000001311000000000131505718000000000001897100000000002508712900000000000000009999123100000010000000000000BRDASAACNOR1107
012012122196DASA3F      020DASA        ON      NM   R$  000000000134000000000013840000000001301000000000132600000000013020000000001301000000000138000039000000000000001283000000000001700440000000000000009999123100000010000000000000BRDASAACNOR1107
012012122162DASA3T      030DASA        ON      NM017R$  000000000131700000000013180000000001317000000000131700000000013180000000000000000000000000000002000000000000005000000000000006586425000000000000009999123100000010000000000000BRDASAACNOR1107
012012122178DASAG16     070DASA        ON      NM000R$  000000000005000000000000510000000000049000000000005000000000000490000000000000000000000000000004000000000000034200000000000001710000000000000160002013071500000010000000000000BRDASAACNOR1107
012012122182DASAS12     080DASAE       ON      NM000R$  000000000007500000000000750000000000075000000000007500000000000750000000000000000000000000000002000000000000019000000000000001425000000000000120002013071500000010000000000000BRDASAACNOR1107
012012122182DASAS40     080DASAE       ON      NM000R$  000000000002500000000000250000000000025000000000002500000000000250000000000000000000000000000002000000000000019000000000000000475000000000000105002013071500000010000000000000BRDASAACNOR1107
012012122102DAYC4       010DAYCOVAL    PN      N1   R$  000000000099000000000009910000000000985000000000098900000000009900000000000988000000000099300065000000000000071100000000000070384300000000000000009999123100000010000000000000BRDAYCACNPR2124
012012122162DAYC4T      030DAYCOVAL    PN      N1031R$  000000000099600000000009970000000000996000000000099600000000009970000000000000000000000000000002000000000000000900000000000000896435000000000000009999123100000010000000000000BRDAYCACNPR2124
012012122102DIRR3       010DIRECIONAL  ON      NM   R$  000000000134400000000013930000000001343000000000136800000000013850000000001380000000000138500500000000000000198400000000000271522100000000000000009999123100000010000000000000BRDIRRACNOR0103
012012122196DIRR3F      020DIRECIONAL  ON      NM   R$  000000000137000000000013700000000001360000000000136500000000013600000000001341000000000138400002000000000000000123000000000000167950000000000000009999123100000010000000000000BRDIRRACNOR0103
012012122162DIRR3T      030DIRECIONAL  ON      NM031R$  000000000137200000000013730000000001372000000000137200000000013730000000000000000000000000000002000000000000000200000000000000274464000000000000009999123100000010000000000000BRDIRRACNOR0103
012012122114DIVO11      010IT NOW IDIV CI           R$  000000000347100000000035040000000003468000000000348800000000035040000000003504000000000350600501000000000000006360000000000022184200000000000000009999123100000010000000000000BRDIVOCTF002100
012012122196DIVO11F     020IT NOW IDIV CI           R$  000000000347000000000034700000000003470000000000347000000000034700000000003470000000000000000001000000000000000006000000000000020820000000000000009999123100000010000000000000BRDIVOCTF002100
012012122102DOHL4       010DOHLER      PN  EJ       R$  000000000033000000000003300000000000330000000000033000000000003300000000000330000000000034700003000000000000000900000000000000297000000000000000009999123100000010000000000000BRDOHLACNPR9054
012012122102DTEX3       010DURATEX     ON      NM   R$  000000000145000000000014920000000001446000000000147300000000014920000000001482000000000149203556000000000000972900000000001434191800000000000000009999123100000010000000000000BRDTEXACNOR3112
012012122196DTEX3F      020DURATEX     ON      NM   R$  000000000147600000000015080000000001456000000000147100000000014830000000001460000000000150900029000000000000000864000000000001271558000000000000009999123100000010000000000000BRDTEXACNOR3112
012012122102EALT4       010ACO ALTONA  PN           R$  000000000278600000000028200000000002786000000000280000000000028150000000002800000000000281900009000000000000010800000000000030246600000000000000009999123100000010000000000000BREALTACNPR1122
012012122196EBTP3F      020EMBRATEL PARON *         R$  000000000110000000000011000000000001100000000000110000000000011000000000001090000000000119000001000000000000003631000000000000003994000000000000009999123100010000000000000000BREBTPACNOR3113
012012122114ECOO11      010ISHARES ECOOCI           R$  000000000546200000000056500000000005462000000000557300000000056500000000005400000000000565000050000000000000009940000000000055399050000000000000009999123100000010000000000000BRECOOCTF008100
012012122196ECOO11F     020ISHARES ECOOCI           R$  000000000557500000000056000000000005575000000000559100000000056000000000005500000000000563500006000000000000000020000000000000111820000000000000009999123100000010000000000000BRECOOCTF008100
012012122102ECOR3       010ECORODOVIAS ON      NM   R$  000000000167500000000016810000000001665000000000167700000000016810000000001675000000000168101375000000000000724800000000001215708900000000000000009999123100000010000000000000BRECORACNOR8105
012012122196ECOR3F      020ECORODOVIAS ON      NM   R$  000000000166900000000016800000000001661000000000167200000000016790000000001660000000000178800010000000000000000235000000000000393233000000000000009999123100000010000000000000BRECORACNOR8105
