00COTAHIST.2012BOVESPA 20121226                                                                                                                                                                                                                      
012012122602AAPL11B     010APPLE       DRN     MB   R$  000000001061000000000106100000000010574000000001060500000000105740000000010270000000001077500002000000000000002900000000000030754600000000000000009999123100000010000000000000BRAAPLBDR004102
012012122602ABCB4       010ABC BRASIL  PN      N2   R$  000000000133800000000013640000000001335000000000134800000000013500000000001350000000000136000551000000000000219900000000000296538100000000000000009999123100000010000000000000BRABCBACNPR4118
012012122696ABCB4F      020ABC BRASIL  PN      N2   R$  000000000122000000000013600000000001220000000000134100000000013600000000001302000000000136000012000000000000000227000000000000304453000000000000009999123100000010000000000000BRABCBACNPR4118
012012122662ABCB4T      030ABC BRASIL  PN      N2030R$  000000000134900000000013500000000001349000000000134900000000013500000000000000000000000000000002000000000000001000000000000001349784000000000000009999123100000010000000000000BRABCBACNPR4118
012012122612ABCP11      010FII ABC IMOBCI           R$  000000000100000000000010000000000001000000000000100000000000010000000000001000000000000101500001000000000000000200000000000000200000000000000000009999123100000010000000000000BRABCPCTF000206
012012122602ABRE11      010ABRIL EDUCA UNT     N2   R$  000000000395300000000040500000000003949000000000397500000000039600000000003960000000000399800186000000000000060600000000000240928700000000000000009999123100000010000000000000BRABRECDAM15101
012012122696ABRE11F     020ABRIL EDUCA UNT     N2   R$  000000000397000000000040990000000003946000000000399400000000039460000000003904000000000409800010000000000000000279000000000001114373000000000000009999123100000010000000000000BRABRECDAM15101
012012122602ABTT11B     010ABBOTT      DRN     MB   R$  000000000335800000000033580000000003358000000000335800000000033580000000003270000000000340000001000000000000000800000000000002686400000000000000009999123100000010000000000000BRABTTBDR007103
012012122602AEDU3       010ANHANGUERA  ON      NM   R$  000000000347000000000035070000000003433000000000347100000000034500000000003443000000000345001284000000000000266400000000000924904400000000000000009999123100000010000000000000BRAEDUACNOR9106
012012122696AEDU3F      020ANHANGUERA  ON      NM   R$  000000000345800000000035000000000003440000000000346600000000034400000000003420000000000346000009000000000000000202000000000000700049000000000000009999123100000010000000000000BRAEDUACNOR9106
012012122612AEFI11      010FII AESAPAR CI           R$  000000001184500000000118800000000011700000000001181200000000118400000000011840000000001185000058000000000000002389000000000028219360000000000000009999123100000010000000000000BRAEFICTF002112
012012122602AELP3       010AES ELPA    ON           R$  000000000144000000000014850000000001440000000000147500000000014850000000001470000000000148500021000000000000037900000000000055903200000000000000009999123100000010000000000000BRAELPACNOR2119
012012122696AELP3F      020AES ELPA    ON           R$  000000000142000000000014200000000001420000000000142000000000014200000000001251000000000000000001000000000000000011000000000000015620000000000000009999123100000010000000000000BRAELPACNOR2119
012012122662AELP3T      030AES ELPA    ON        033R$  000000000149400000000014950000000001494000000000149400000000014950000000000000000000000000000002000000000000004100000000000006129293000000000000009999123100000010000000000000BRAELPACNOR2119
012012122662AELP3T      030AES ELPA    ON        061R$  000000000149300000000014940000000001493000000000149300000000014940000000000000000000000000000002000000000000028000000000000041819187000000000000009999123100000010000000000000BRAELPACNOR2119
012012122602AFLT3       010AFLUENTE T  ON           R$  000000000036000000000003600000000000299000000000030500000000003000000000000291000000000031000016000000000000008100000000000002471500000000000000009999123100000010000000000000BRAFLTACNOR1102
012012122696AFLT3F      020AFLUENTE T  ON           R$  000000000040000000000004000000000000400000000000040000000000004000000000000314000000000035000002000000000000000044000000000000017600000000000000009999123100000010000000000000BRAFLTACNOR1102
012012122612AGCX11      010FII AG CAIXACI           R$  000000011350000000001140000000000113000000000011347200000001130000000000112900000000011390000028000000000000000446000000000050608591000000000000009999123100000010000000000000BRAGCXCTF003101
012012122602AGEN11      010AGRENCO     DR3          R$  000000000002400000000000250000000000023000000000002300000000000230000000000023000000000002400055000000000001212900000000000029098600000000000000009999123100000010000000000000BRAGENBDR001100
012012122602AGRO3       010BRASILAGRO  ON      NM   R$  000000000098900000000010100000000000989000000000099900000000010080000000001000000000000100800083000000000000059400000000000059391900000000000000009999123100000010000000000000BRAGROACNOR7102
012012122602AHEB3       010SPTURIS     ON           R$  000000000260000000000026000000000002600000000000260000000000026000000000000000000000000400000002000000000000000300000000000000780000000000000000009999123100000010000000000000BRAHEBACNOR0102
012012122696AHEB3F      020SPTURIS     ON           R$  000000000250000000000025000000000002500000000000250000000000025000000000000000000000000330000001000000000000000002000000000000005000000000000000009999123100000010000000000000BRAHEBACNOR0102
012012122602AHEB5       010SPTURIS     PNA          R$  000000000260000000000026000000000002600000000000260000000000026000000000000000000000000400000002000000000000000400000000000001040000000000000000009999123100000010000000000000BRAHEBACNPA3102
012012122696AHEB5F      020SPTURIS     PNA          R$  000000000260000000000026000000000002600000000000260000000000026000000000000000000000000330000001000000000000000032000000000000083200000000000000009999123100000010000000000000BRAHEBACNPA3102
012012122696AHEB6F      020SPTURIS     PNB          R$  000000000250000000000025000000000002500000000000250000000000025000000000002500000000000500000002000000000000000005000000000000012500000000000000009999123100000010000000000000BRAHEBACNPB1102
012012122602ALLL3       010ALL AMER LATON      NM   R$  000000000082300000000008360000000000821000000000082800000000008290000000000827000000000082901931000000000000647100000000000535942100000000000000009999123100000010000000000000BRALLLACNOR6117
012012122696ALLL3F      020ALL AMER LATON      NM   R$  000000000082500000000008310000000000811000000000082500000000008110000000000820000000000083000032000000000000000714000000000000589667000000000000009999123100000010000000000000BRALLLACNOR6117
012012122612ALMI11B     010FII TORRE ALCI      MB   R$  000000037255100000003725510000000372500000000037253000000003725000000000366102000000037250000002000000000000000022000000000008195663000000000000009999123100000010000000000000BRALMICTF003196
012012122602ALPA3       010ALPARGATAS  ON      N1   R$  000000000143500000000014350000000001420000000000142700000000014350000000001435000000000143600007000000000000387400000000000553004500000000000000009999123100000010000000000000BRALPAACNOR0199
012012122602ALPA4       010ALPARGATAS  PN      N1   R$  000000000145100000000014800000000001443000000000145500000000014800000000001462000000000148000435000000000000478300000000000696127700000000000000009999123100000010000000000000BRALPAACNPR7199
012012122696ALPA4F      020ALPARGATAS  PN      N1   R$  000000000140500000000014800000000001405000000000144200000000014800000000001431000000000148000012000000000000000287000000000000413966000000000000009999123100000010000000000000BRALPAACNPR7199
012012122662ALPA4T      030ALPARGATAS  PN      N1180R$  000000000151700000000015180000000001517000000000151700000000015180000000000000000000000000000006000000000000033500000000000050829885000000000000009999123100000010000000000000BRALPAACNPR7199
012012122602ALSC3       010ALIANSCE    ON      NM   R$  000000000239500000000024370000000002378000000000240700000000024000000000002400000000000241001191000000000000828700000000001995067200000000000000009999123100000010000000000000BRALSCACNOR0103
012012122696ALSC3F      020ALIANSCE    ON      NM   R$  000000000232600000000024490000000002326000000000240800000000024010000000002401000000000244900014000000000000000386000000000000929572000000000000009999123100000010000000000000BRALSCACNOR0103
012012122662ALSC3T      030ALIANSCE    ON      NM033R$  000000000244400000000024450000000002444000000000244400000000024450000000000000000000000000000002000000000000200000000000000488916000000000000000009999123100000010000000000000BRALSCACNOR0103
012012122602AMAR3       010LOJAS MARISAON      NM   R$  000000000322100000000032300000000003192000000000322100000000032300000000003220000000000323000490000000000000531100000000001711054900000000000000009999123100000010000000000000BRAMARACNOR4108
012012122696AMAR3F      020LOJAS MARISAON      NM   R$  000000000322000000000032740000000003201000000000321600000000032250000000003200000000000327500010000000000000000185000000000000595043000000000000009999123100000010000000000000BRAMARACNOR4108
012012122602AMBV3       010AMBEV       ON           R$  000000000850200000000085460000000008378000000000843800000000083850000000008383000000000838501548000000000000215300000000001816863000000000000000009999123100000010000000000000BRAMBVACNOR4150
012012122696AMBV3F      020AMBEV       ON           R$  000000000850000000000085490000000008386000000000844000000000084080000000008384000000000845000028000000000000000629000000000005309282000000000000009999123100000010000000000000BRAMBVACNOR4150
012012122602AMBV4       010AMBEV       PN           R$  000000000845300000000087240000000008453000000000858700000000085450000000008545000000000858503835000000000000855900000000007349877100000000000000009999123100000010000000000000BRAMBVACNPR1150
012012122696AMBV4F      020AMBEV       PN           R$  000000000869900000000087740000000008500000000000861300000000085780000000008562000000000862400217000000000000003967000000000034161335000000000000009999123100000010000000000000BRAMBVACNPR1150
012012122662AMBV4T      030AMBEV       PN        033R$  000000000850000000000086240000000008500000000000861100000000086240000000000000000000000000000004000000000000001000000000000008611626000000000000009999123100000010000000000000BRAMBVACNPR1150
012012122662AMBV4T      030AMBEV       PN        061R$  000000000867400000000086750000000008674000000000867400000000086750000000000000000000000000000002000000000000000500000000000004337218000000000000009999123100000010000000000000BRAMBVACNPR1150
012012122678AMBVA88     070AMBV        PN        000R$  000000000008100000000000810000000000072000000000007700000000000750000000000000000000000017000004000000000000000400000000000000030900000000000880002013012100000010000000000000BRAMBVACNPR1150
012012122678AMBVA89     070AMBV        PN        000R$  000000000004200000000000420000000000042000000000004200000000000420000000000036000000000008000002000000000000000300000000000000012600000000000890002013012100000010000000000000BRAMBVACNPR1150
012012122602AMGN11B     010AMGEN       DRN     MB   R$  000000001780900000000178090000000017809000000001780900000000178090000000000000000000000000000001000000000000000100000000000001780900000000000000009999123100000010000000000000BRAMGNBDR004104
012012122602AMIL3       010AMIL        ON      NM   R$  000000000308400000000030870000000003079000000000308100000000030860000000003079000000000308600052000000000000058800000000000181176600000000000000009999123100000010000000000000BRAMILACNOR0106
012012122696AMIL3F      020AMIL        ON      NM   R$  000000000309000000000030900000000003090000000000309000000000030900000000003071000000000319900002000000000000000073000000000000225570000000000000009999123100000010000000000000BRAMILACNOR0106
012012122602AMZO11B     010AMAZON      DRN     MB   R$  000000005136400000000513640000000051364000000005136400000000513640000000000000000000000000000001000000000000000100000000000005136400000000000000009999123100000010000000000000BRAMZOBDR002100
012012122602ARTR3       010ARTERIS     ON      NM   R$  000000000188500000000018850000000001861000000000187800000000018810000000001867000000000188100547000000000000191100000000000358999400000000000000009999123100000010000000000000BRARTRACNOR3100
012012122696ARTR3F      020ARTERIS     ON      NM   R$  000000000186000000000018700000000001860000000000186000000000018600000000001700000000000203000003000000000000000068000000000000126490000000000000009999123100000010000000000000BRARTRACNOR3100
012012122602ARZZ3       010AREZZO CO   ON      NM   R$  000000000400000000000041170000000003979000000000402600000000040990000000004059000000000409900402000000000000110700000000000445760100000000000000009999123100000010000000000000BRARZZACNOR3105
012012122696ARZZ3F      020AREZZO CO   ON      NM   R$  000000000400000000000041200000000003987000000000405100000000041200000000003901000000000412000012000000000000000278000000000001126196000000000000009999123100000010000000000000BRARZZACNOR3105
012012122602AUTM3       010AUTOMETAL   ON      NM   R$  000000000201700000000020330000000002006000000000201300000000020070000000002006000000000201500074000000000000026900000000000054176000000000000000009999123100000010000000000000BRAUTMACNOR8106
012012122602AVON11B     010AVON        DRN     MB   R$  000000000144200000000014420000000001442000000000144200000000014420000000001405000000000145500001000000000000000100000000000000144200000000000000009999123100000010000000000000BRAVONBDR009109
012012122602AZEV4       010AZEVEDO     PN           R$  000000000023900000000002390000000000239000000000023900000000002390000000000202000000000024100003000000000000000700000000000000167300000000000000009999123100000010000000000000BRAZEVACNPR7113
012012122602BAUH4       010EXCELSIOR   PN           R$  000000000043100000000004350000000000431000000000043400000000004350000000000432000000000045000002000000000000001000000000000000434600000000000000009999123100000010000000000000BRBAUHACNPR3108
012012122602BAZA3       010AMAZONIA    ON           R$  000000000003600000000000360000000000036000000000003600000000000360000000000036000000000003700012000000000000162000000000000005832000000000000000009999123100000010000000000000BRBAZAACNOR0162
012012122602BBAS3       010BRASIL      ON  EJ  NM   R$  000000000250100000000025170000000002442000000000248600000000025000000000002500000000000250310891000000000004415100000000010980220200000000000000009999123100000010000000000000BRBBASACNOR3233
012012122696BBAS3F      020BRASIL      ON  EJ  NM   R$  000000000250100000000025120000000002442000000000249000000000025010000000002485000000000250000241000000000000006172000000000015374148000000000000009999123100000010000000000000BRBBASACNOR3233
012012122662BBAS3T      030BRASIL      ON  EJ  NM033R$  000000000249800000000025090000000002481000000000248900000000024820000000000000000000000000000010000000000000001600000000000003982639000000000000009999123100000010000000000000BRBBASACNOR3233
012012122662BBAS3T      030BRASIL      ON  EJ  NM061R$  000000000251600000000025170000000002485000000000249900000000024930000000000000000000000000000006000000000000002300000000000005749919000000000000009999123100000010000000000000BRBBASACNOR3233
012012122662BBAS3T      030BRASIL      ON  EJ  NM090R$  000000000251800000000025400000000002518000000000253600000000025400000000000000000000000000000004000000000000005700000000000014460052000000000000009999123100000010000000000000BRBBASACNOR3233
012012122662BBAS3T      030BRASIL      ON  EJ  NM120R$  000000000254800000000025490000000002548000000000254800000000025490000000000000000000000000000002000000000000025000000000000063717197000000000000009999123100000010000000000000BRBBASACNOR3233
012012122678BBASA21     070BBAS    /EJ ON      NM000R$  000000000045200000000004540000000000439000000000045100000000004390000000000000000000000000000019000000000000011500000000000005188500000000000206402013012100000010000000000000BRBBASACNOR3231
012012122678BBASA22     070BBAS    /EJ ON      NM000R$  000000000035900000000003600000000000353000000000035500000000003530000000000320000000000039000004000000000000005400000000000001921000000000000216402013012100000010000000000000BRBBASACNOR3231
012012122678BBASA23     070BBAS    /EJ ON      NM000R$  000000000024700000000002700000000000214000000000024800000000002700000000000220000000000026800011000000000000024900000000000006182900000000000226402013012100000010000000000000BRBBASACNOR3231
012012122678BBASA24     070BBAS  FM/EJ ON      NM000R$  000000000018000000000001800000000000126000000000015400000000001690000000000158000000000017200667000000000000495200000000000076417200000000000236402013012100000010000000000000BRBBASACNOR3231
012012122678BBASA25     070BBAS  FM/EJ ON      NM000R$  000000000010000000000001050000000000063000000000008400000000000930000000000090000000000009600430000000000000334900000000000028305200000000000246402013012100000010000000000000BRBBASACNOR3231
012012122678BBASA26     070BBAS  FM/EJ ON      NM000R$  000000000004800000000000500000000000026000000000003900000000000420000000000030000000000004400264000000000000175400000000000006977900000000000256402013012100000010000000000000BRBBASACNOR3231
012012122678BBASA27     070BBAS  FM/EJ ON      NM000R$  000000000001100000000000140000000000006000000000001000000000000120000000000007000000000001200033000000000000062600000000000000641200000000000270002013012100000010000000000000BRBBASACNOR3233
012012122678BBASA28     070BBAS  FM/EJ ON      NM000R$  000000000000400000000000040000000000004000000000000400000000000040000000000002000000000000000007000000000000006200000000000000024800000000000280002013012100000010000000000000BRBBASACNOR3233
012012122678BBASA29     070BBAS    /EJ ON      NM000R$  000000000000200000000000020000000000002000000000000200000000000020000000000001000000000000200001000000000000000500000000000000001000000000000286402013012100000010000000000000BRBBASACNOR3231
012012122678BBASB23     070BBAS    /EJ ON      NM000R$  000000000025600000000002900000000000256000000000027100000000002900000000000100000000000000000007000000000000016300000000000004418000000000000226402013021800000010000000000000BRBBASACNOR3231
012012122678BBASB24     070BBAS  FM/EJ ON      NM000R$  000000000020000000000002080000000000172000000000019200000000002020000000000032000000000025000026000000000000027800000000000005337800000000000237502013021800000010000000000000BRBBASACNOR3232
012012122678BBASB25     070BBAS  FM/EJ ON      NM000R$  000000000013500000000001440000000000117000000000012700000000001440000000000131000000000000000036000000000000038300000000000004884500000000000246402013021800000010000000000000BRBBASACNOR3231
012012122678BBASB26     070BBAS  FM/EJ ON      NM000R$  000000000008600000000000890000000000073000000000007900000000000860000000000061000000000000000045000000000000056000000000000004472300000000000257502013021800000010000000000000BRBBASACNOR3232
012012122678BBASB27     070BBAS  FM/EJ ON      NM000R$  000000000005200000000000530000000000038000000000004600000000000530000000000021000000000008500041000000000000053700000000000002523200000000000266402013021800000010000000000000BRBBASACNOR3231
012012122678BBASB28     070BBAS  FM/EJ ON      NM000R$  000000000002100000000000240000000000015000000000002000000000000230000000000003000000000000000042000000000000056700000000000001159000000000000280002013021800000010000000000000BRBBASACNOR3233
012012122682BBASM20     080BBASE   /EJ ON      NM000R$  000000000000400000000000040000000000004000000000000400000000000040000000000000000000000000800001000000000000000100000000000000000400000000000196402013012100000010000000000000BRBBASACNOR3231
012012122682BBASM21     080BBASE   /EJ ON      NM000R$  000000000000500000000000060000000000005000000000000500000000000060000000000002000000000001800003000000000000006400000000000000035800000000000206402013012100000010000000000000BRBBASACNOR3231
012012122682BBASM22     080BBASE   /EJ ON      NM000R$  000000000000900000000000100000000000009000000000000900000000000100000000000005000000000001200006000000000000005200000000000000047000000000000216402013012100000010000000000000BRBBASACNOR3231
012012122682BBASM23     080BBASE FM/EJ ON      NM000R$  000000000001300000000000130000000000011000000000001100000000000120000000000006000000000000000009000000000000012900000000000000146800000000000226402013012100000010000000000000BRBBASACNOR3231
012012122682BBASM24     080BBASE FM/EJ ON      NM000R$  000000000002600000000000360000000000024000000000002600000000000250000000000021000000000003000059000000000000073500000000000001945200000000000236402013012100000010000000000000BRBBASACNOR3231
012012122682BBASM25     080BBASE FM/EJ ON      NM000R$  000000000005100000000000670000000000048000000000005500000000000480000000000045000000000007000057000000000000054200000000000003006100000000000246402013012100000010000000000000BRBBASACNOR3231
012012122682BBASM26     080BBASE FM/EJ ON      NM000R$  000000000009500000000001340000000000092000000000010700000000000970000000000000000000000013000167000000000000165400000000000017752800000000000256402013012100000010000000000000BRBBASACNOR3231
012012122682BBASN23     080BBASE FM/EJ ON      NM000R$  000000000002900000000000390000000000029000000000003200000000000300000000000000000000000000000056000000000000067500000000000002193000000000000226402013021800000010000000000000BRBBASACNOR3231
012012122682BBASN24     080BBASE FM/EJ ON      NM000R$  000000000005500000000000660000000000055000000000006300000000000630000000000036000000000000000010000000000000013600000000000000870200000000000237502013021800000010000000000000BRBBASACNOR3232
012012122682BBASN25     080BBASE FM/EJ ON      NM000R$  000000000008300000000001070000000000081000000000009200000000000880000000000000000000000000000038000000000000048100000000000004432700000000000246402013021800000010000000000000BRBBASACNOR3231
012012122682BBASN26     080BBASE FM/EJ ON      NM000R$  000000000013000000000001720000000000130000000000014000000000001410000000000000000000000000000077000000000000104300000000000014643100000000000257502013021800000010000000000000BRBBASACNOR3232
012012122602BBDC3       010BRADESCO    ON  EJ  N1   R$  000000000354000000000035430000000003412000000000343700000000034120000000003411000000000341201612000000000000595700000000002047571600000000000000009999123100000010000000000000BRBBDCACNOR1594
012012122696BBDC3F      020BRADESCO    ON  EJ  N1   R$  000000000356000000000035600000000003430000000000345700000000034550000000003400000000000345500053000000000000001455000000000005030998000000000000009999123100000010000000000000BRBBDCACNOR1594
012012122662BBDC3T      030BRADESCO    ON  EJ  N1090R$  000000000349700000000034980000000003497000000000349700000000034980000000000000000000000000000002000000000000001230000000000004301780000000000000009999123100000010000000000000BRBBDCACNOR1594
012012122602BBDC4       010BRADESCO    PN  EJ  N1   R$  000000000363500000000036590000000003557000000000358300000000035600000000003558000000000356010400000000000004801000000000017202759400000000000000009999123100000010000000000000BRBBDCACNPR8594
012012122696BBDC4F      020BRADESCO    PN  EJ  N1   R$  000000000363500000000036600000000003557000000000359100000000035620000000003563000000000357900183000000000000004154000000000014910932000000000000009999123100000010000000000000BRBBDCACNPR8594
012012122662BBDC4T      030BRADESCO    PN  EJ  N1033R$  000000000359000000000035910000000003583000000000358800000000035890000000000000000000000000000006000000000000004000000000000014353232000000000000009999123100000010000000000000BRBBDCACNPR8594
012012122678BBDCA31     070BBDC    /EJ PN      N1000R$  000000000059800000000005990000000000595000000000059700000000005960000000000000000000000063900005000000000000001000000000000000597200000000000304802013012100000010000000000000BRBBDCACNPR8591
012012122678BBDCA33     070BBDC    /EJ PN      N1000R$  000000000035000000000003500000000000350000000000035000000000003500000000000278000000000000000018000000000000033500000000000011725000000000000325002013012100000010000000000000BRBBDCACNPR8592
012012122678BBDCA34     070BBDC    /EJ PN      N1000R$  000000000027900000000002790000000000264000000000027600000000002640000000000240000000000031300004000000000000006500000000000001796000000000000334802013012100000010000000000000BRBBDCACNPR8591
012012122678BBDCA35     070BBDC  FM/EJ PN      N1000R$  000000000023500000000002370000000000170000000000018800000000001720000000000171000000000018600102000000000000122800000000000023186400000000000345002013012100000010000000000000BRBBDCACNPR8592
012012122678BBDCA36     070BBDC  FM/EJ PN      N1000R$  000000000015400000000001600000000000101000000000011700000000001080000000000091000000000011100378000000000000359200000000000042043000000000000355002013012100000010000000000000BRBBDCACNPR8592
012012122678BBDCA37     070BBDC  FM/EJ PN      N1000R$  000000000008800000000000900000000000053000000000006300000000000570000000000025000000000008600123000000000000147100000000000009340000000000000365002013012100000010000000000000BRBBDCACNPR8592
012012122678BBDCA38     070BBDC  FM/EJ PN      N1000R$  000000000004500000000000460000000000026000000000003300000000000280000000000025000000000002900128000000000000226600000000000007614800000000000374402013012100000010000000000000BRBBDCACNPR8589
012012122678BBDCA39     070BBDC  FM/EJ PN      N1000R$  000000000001600000000000200000000000011000000000001700000000000120000000000000000000000001800049000000000000076800000000000001347800000000000385202013012100000010000000000000BRBBDCACNPR8593
012012122678BBDCA40     070BBDC    /EJ PN      N1000R$  000000000000500000000000050000000000005000000000000500000000000050000000000003000000000000000002000000000000003500000000000000017500000000000395202013012100000010000000000000BRBBDCACNPR8593
012012122678BBDCB35     070BBDC  FM/EJ PN      N1000R$  000000000029700000000002970000000000223000000000024700000000002310000000000000000000000000000056000000000000083600000000000020696300000000000344402013021800000010000000000000BRBBDCACNPR8589
012012122678BBDCB36     070BBDC  FM/EJ PN      N1000R$  000000000020200000000002120000000000160000000000018100000000001650000000000010000000000018500038000000000000061700000000000011207600000000000354802013021800000010000000000000BRBBDCACNPR8591
012012122678BBDCB37     070BBDC  FM/EJ PN      N1000R$  000000000013300000000001470000000000108000000000012400000000001080000000000000000000000011700036000000000000053400000000000006647600000000000365202013021800000010000000000000BRBBDCACNPR8593
012012122678BBDCB38     070BBDC  FM/EJ PN      N1000R$  000000000008000000000000970000000000067000000000007700000000000680000000000000000000000000000082000000000000133800000000000010400100000000000375202013021800000010000000000000BRBBDCACNPR8593
012012122678BBDCB39     070BBDC  FM/EJ PN      N1000R$  000000000004200000000000560000000000039000000000004700000000000410000000000000000000000000000040000000000000057100000000000002726400000000000385202013021800000010000000000000BRBBDCACNPR8593
012012122682BBDCM33     080BBDCE   /EJ PN      N1000R$  000000000002000000000000200000000000020000000000002000000000000200000000000006000000000000000002000000000000002100000000000000042000000000000325002013012100000010000000000000BRBBDCACNPR8592
012012122682BBDCM34     080BBDCE FM/EJ PN      N1000R$  000000000002300000000000320000000000023000000000003000000000000310000000000000000000000005100124000000000000167000000000000005046300000000000334802013012100000010000000000000BRBBDCACNPR8591
012012122682BBDCM35     080BBDCE FM/EJ PN      N1000R$  000000000003100000000000510000000000031000000000004700000000000510000000000036000000000005500061000000000000067800000000000003205100000000000345002013012100000010000000000000BRBBDCACNPR8592
012012122682BBDCM36     080BBDCE FM/EJ PN      N1000R$  000000000005200000000000830000000000048000000000007300000000000810000000000000000000000009000160000000000000152600000000000011184700000000000355002013012100000010000000000000BRBBDCACNPR8592
012012122682BBDCM37     080BBDCE FM/EJ PN      N1000R$  000000000008000000000001320000000000080000000000010600000000001280000000000000000000000013700075000000000000092100000000000009846100000000000365002013012100000010000000000000BRBBDCACNPR8592
012012122682BBDCN34     080BBDCE FM/EJ PN      N1000R$  000000000004500000000000590000000000044000000000005400000000000560000000000000000000000006600078000000000000105200000000000005684700000000000334602013021800000010000000000000BRBBDCACNPR8590
012012122682BBDCN35     080BBDCE FM/EJ PN      N1000R$  000000000007700000000000820000000000074000000000007600000000000820000000000000000000000000000027000000000000034200000000000002613900000000000344402013021800000010000000000000BRBBDCACNPR8589
012012122682BBDCN36     080BBDCE FM/EJ PN      N1000R$  000000000009900000000001210000000000099000000000011100000000001170000000000000000000000000000069000000000000030700000000000003417500000000000354802013021800000010000000000000BRBBDCACNPR8591
012012122682BBDCN37     080BBDCE FM/EJ PN      N1000R$  000000000013800000000001710000000000138000000000015100000000001690000000000000000000000000000034000000000000047700000000000007245400000000000365202013021800000010000000000000BRBBDCACNPR8593
012012122612BBFI11B     010FII BB PROGRCI      MB   R$  000000045990000000004699970000000459700000000046051400000004599000000000452501000000045990000013000000000000000033000000000015196990000000000000009999123100000010000000000000BRBBFICTF006189
012012122612BBPO11      010FII BB PRGIICI           R$  000000001180000000000119500000000011800000000001189600000000119000000000011896000000001190000627000000000000041846000000000497819750000000000000009999123100000010000000000000BRBBPOCTF003101
012012122612BBRC11      010FII BB CORP CI           R$  000000001147000000000115000000000011300000000001140800000000113000000000011300000000001150000018000000000000000854000000000009742548000000000000009999123100000010000000000000BRBBRCCTF004115
012012122602BBRK3       010BR BROKERS  ON      NM   R$  000000000069400000000007000000000000685000000000069100000000006900000000000687000000000069301840000000000001041200000000000719895400000000000000009999123100000010000000000000BRBBRKACNOR4107
012012122696BBRK3F      020BR BROKERS  ON      NM   R$  000000000068600000000006970000000000642000000000068600000000006420000000000642000000000069000007000000000000000304000000000000208824000000000000009999123100000010000000000000BRBBRKACNOR4107
012012122662BBRK3T      030BR BROKERS  ON      NM033R$  000000000069900000000007000000000000699000000000069900000000007000000000000000000000000000000002000000000000005600000000000003914963000000000000009999123100000010000000000000BRBBRKACNOR4107
012012122602BBTG11      010BTG PACTUAL UNT          R$  000000000302900000000030560000000002920000000000301300000000030300000000003030000000000305000188000000000000048700000000000146776000000000000000009999123100000010000000000000BRBBTGUNT007102
012012122696BBTG11F     020BTG PACTUAL UNT          R$  000000000309000000000030900000000002962000000000299800000000029920000000002961000000000300000010000000000000000272000000000000815539000000000000009999123100000010000000000000BRBBTGUNT007102
012012122662BBTG11T     030BTG PACTUAL UNT       090R$  000000000308400000000030850000000003084000000000308400000000030850000000000000000000000000000002000000000000000200000000000000616836000000000000009999123100000010000000000000BRBBTGUNT007102
012012122612BBVJ11      010FII C JARDIMCI           R$  000000001130100000000115000000000011250000000001128900000000115000000000011280000000001150000033000000000000002066000000000023323722000000000000009999123100000010000000000000BRBBVJCTF001124
012012122612BCFF11B     010FII BC FFII CI      MB   R$  000000001360000000000139900000000013600000000001378600000000139900000000013810000000001399000103000000000000004589000000000063265110000000000000009999123100000010000000000000BRBCFFCTF000132
012012122602BDLL4       010BARDELLA    PN           R$  000000000655100000000068000000000006550000000000661800000000068000000000006651000000000680000008000000000000002200000000000014560100000000000000009999123100000010000000000000BRBDLLACNPR8148
012012122696BDLL4F      020BARDELLA    PN           R$  000000000660000000000066000000000006600000000000660000000000066000000000006580000000000680000001000000000000000005000000000000033000000000000000009999123100000010000000000000BRBDLLACNPR8148
012012122662BDLL4T      030BARDELLA    PN        049R$  000000000686100000000068620000000006861000000000686100000000068620000000000000000000000000000002000000000000000300000000000002058564000000000000009999123100000010000000000000BRBDLLACNPR8148
012012122602BEEF3       010MINERVA     ON      NM   R$  000000000107000000000010860000000001068000000000107600000000010720000000001072000000000108001628000000000000501900000000000540353900000000000000009999123100000010000000000000BRBEEFACNOR6104
012012122696BEEF3F      020MINERVA     ON      NM   R$  000000000107100000000010840000000001070000000000107600000000010840000000001079000000000110000013000000000000000292000000000000314322000000000000009999123100000010000000000000BRBEEFACNOR6104
012012122662BEEF3T      030MINERVA     ON      NM033R$  000000000108100000000010840000000001081000000000108200000000010840000000000000000000000000000004000000000000001100000000000001191230000000000000009999123100000010000000000000BRBEEFACNOR6104
012012122602BEES3       010BANESTES    ON           R$  000000000005000000000000500000000000049000000000004900000000000490000000000049000000000005000025000000000000178500000000000008916000000000000000009999123100000010000000000000BRBEESACNOR9235
012012122696BEES3F      020BANESTES    ON           R$  000000000005200000000000520000000000052000000000005200000000000520000000000049000000000005500001000000000000000004000000000000000208000000000000009999123100000010000000000000BRBEESACNOR9235
012012122602BEMA3       010BEMATECH    ON      NM   R$  000000000057000000000005790000000000562000000000057000000000005770000000000575000000000057700049000000000000060100000000000034273300000000000000009999123100000010000000000000BRBEMAACNOR0111
012012122602BHGR3       010BHG         ON      NM   R$  000000000189100000000018910000000001890000000000189000000000018900000000001855000000000189000006000000000000007100000000000013419400000000000000009999123100000010000000000000BRBHGRACNOR9101
012012122602BICB4       010BICBANCO    PN  EJ  N1   R$  000000000062500000000006530000000000623000000000063400000000006500000000000629000000000065000259000000000000335500000000000213006200000000000000009999123100000010000000000000BRBICBACNPR7128
012012122696BICB4F      020BICBANCO    PN  EJ  N1   R$  000000000063000000000006590000000000625000000000063500000000006590000000000630000000000065900008000000000000000251000000000000159520000000000000009999123100000010000000000000BRBICBACNPR7128
012012122662BICB4T      030BICBANCO    PN  EJ  N1061R$  000000000063700000000006380000000000637000000000063700000000006380000000000000000000000000000002000000000000100000000000000063705600000000000000009999123100000010000000000000BRBICBACNPR7128
012012122602BIOM4       010BIOMM       PN           R$  000000000044000000000004500000000000440000000000044500000000004500000000000430000000000049500003000000000000007000000000000003120000000000000000009999123100000010000000000000BRBIOMACNPR9101
012012122696BIOM4F      020BIOMM       PN           R$  000000000044000000000004400000000000440000000000044000000000004400000000000350000000000044000001000000000000000042000000000000018480000000000000009999123100000010000000000000BRBIOMACNPR9101
012012122602BISA3       010BROOKFIELD  ON      NM   R$  000000000034100000000003470000000000341000000000034400000000003440000000000343000000000034402879000000000001660400000000000572563200000000000000009999123100000010000000000000BRBISAACNOR8109
012012122696BISA3F      020BROOKFIELD  ON      NM   R$  000000000034300000000003490000000000341000000000034300000000003450000000000340000000000034500026000000000000000704000000000000242110000000000000009999123100000010000000000000BRBISAACNOR8109
012012122662BISA3T      030BROOKFIELD  ON      NM061R$  000000000034500000000003480000000000345000000000034700000000003480000000000000000000000000000004000000000000019000000000000006594722000000000000009999123100000010000000000000BRBISAACNOR8109
012012122662BISA3T      030BROOKFIELD  ON      NM180R$  000000000035600000000003600000000000356000000000035800000000003600000000000000000000000000000004000000000000015000000000000005371478000000000000009999123100000010000000000000BRBISAACNOR8109
012012122602BMEB3       010MERC BRASIL ON           R$  000000000155000000000015500000000001550000000000155000000000015500000000001400000000000155000002000000000000000300000000000000465000000000000000009999123100000010000000000000BRBMEBACNOR8187
012012122696BMEB3F      020MERC BRASIL ON           R$  000000000155000000000015500000000001550000000000155000000000015500000000001501000000000155000001000000000000000012000000000000018600000000000000009999123100000010000000000000BRBMEBACNOR8187
012012122602BMEB4       010MERC BRASIL PN           R$  000000000112500000000011250000000001125000000000112500000000011250000000001022000000000112500001000000000000000100000000000000112500000000000000009999123100000010000000000000BRBMEBACNPR5188
012012122602BMIN4       010MERC INVEST PN           R$  000000000002500000000000250000000000025000000000002500000000000250000000000024000000000002500001000000000000001000000000000000025000000000000000009999123100000010000000000000BRBMINACNPR1158
012012122612BMLC11B     010FII BMBRC LCCI      MB   R$  000000001250000000000125000000000012500000000001250000000000125000000000012500000000001295000001000000000000000009000000000000112500000000000000009999123100000010000000000000BRBMLCCTF004110
012012122602BMTO4       010BRASMOTOR   PN           R$  000000000007700000000000770000000000077000000000007700000000000770000000000075000000000007700005000000000000030000000000000002310000000000000000009999123100000010000000000000BRBMTOACNPR6065
012012122696BMTO4F      020BRASMOTOR   PN           R$  000000000007300000000000770000000000073000000000007400000000000770000000000075000000000007900003000000000000000210000000000000015730000000000000009999123100000010000000000000BRBMTOACNPR6065
012012122662BMTO4T      030BRASMOTOR   PN        090R$  000000000007800000000000790000000000078000000000007800000000000790000000000000000000000000000002000000000000015000000000000001174982000000000000009999123100000010000000000000BRBMTOACNPR6065
012012122602BOAC11B     010BANK AMERICADRN     MB   R$  000000000238500000000023850000000002385000000000238500000000023850000000002340000000000239500001000000000000000400000000000000954000000000000000009999123100000010000000000000BRBOACBDR004109
012012122696BOBR4F      020BOMBRIL     PN           R$  000000000078500000000008000000000000785000000000078800000000008000000000000701000000000080000002000000000000000005000000000000003940000000000000009999123100000010000000000000BRBOBRACNPR3127
012012122614BOVA11      010ISHARES BOVACI           R$  000000000597000000000060200000000005970000000000599000000000059710000000005971000000000599001465000000000001103960000000006613174520000000000000009999123100000010000000000000BRBOVACTF003101
012012122696BOVA11F     020ISHARES BOVACI           R$  000000000590000000000061440000000005900000000000603600000000059840000000005993000000000614400017000000000000000036000000000000217311000000000000009999123100000010000000000000BRBOVACTF003101
012012122682BOVAM25     080BOVAE       CI        000R$  000000000002600000000000260000000000026000000000002600000000000260000000000000000000000000000002000000000000200000000000000005200000000000000555002013012100000010000000000000BRBOVACTF003101
012012122682BOVAM59     080BOVAE       CI        000R$  000000000010100000000001010000000000101000000000010100000000001010000000000000000000000000000001000000000000000200000000000000020200000000000590002013012100000010000000000000BRBOVACTF003101
012012122602BPHA3       010BR PHARMA   ON      NM   R$  000000000138000000000014000000000001351000000000137500000000014000000000001360000000000000000817000000000000330300000000000454414100000000000000009999123100000010000000000000BRBPHAACNOR6102
012012122696BPHA3F      020BR PHARMA   ON      NM   R$  000000000138500000000014000000000001350000000000138300000000014000000000001300000000000140000009000000000000000257000000000000355593000000000000009999123100000010000000000000BRBPHAACNOR6102
012012122602BPNM4       010PANAMERICANOPN      N1   R$  000000000050100000000005190000000000501000000000051200000000005100000000000510000000000051300164000000000000145200000000000074480300000000000000009999123100000010000000000000BRBPNMACNPR6111
012012122696BPNM4F      020PANAMERICANOPN      N1   R$  000000000050000000000005200000000000500000000000051500000000005190000000000501000000000051700007000000000000000349000000000000179901000000000000009999123100000010000000000000BRBPNMACNPR6111
012012122662BPNM4T      030PANAMERICANOPN      N1061R$  000000000051500000000005160000000000515000000000051500000000005160000000000000000000000000000002000000000000015000000000000007728030000000000000009999123100000010000000000000BRBPNMACNPR6111
012012122602BRAP3       010BRADESPAR   ON      N1   R$  000000000303600000000030500000000003036000000000304600000000030480000000002964000000000326900005000000000000005000000000000015234200000000000000009999123100000010000000000000BRBRAPACNOR5123
012012122696BRAP3F      020BRADESPAR   ON      N1   R$  000000000298000000000029800000000002980000000000298000000000029800000000002980000000000318900002000000000000000024000000000000071520000000000000009999123100000010000000000000BRBRAPACNOR5123
012012122602BRAP4       010BRADESPAR   PN      N1   R$  000000000318400000000032350000000003135000000000320500000000032070000000003202000000000320702056000000000000568100000000001821108700000000000000009999123100000010000000000000BRBRAPACNPR2123
012012122696BRAP4F      020BRADESPAR   PN      N1   R$  000000000321100000000032110000000003163000000000319700000000032000000000003162000000000320000023000000000000000569000000000001819576000000000000009999123100000010000000000000BRBRAPACNPR2123
012012122662BRAP4T      030BRADESPAR   PN      N1061R$  000000000323900000000032400000000003239000000000323900000000032400000000000000000000000000000004000000000000002400000000000007773768000000000000009999123100000010000000000000BRBRAPACNPR2123
012012122614BRAX11      010ISHARES BRAXCI           R$  000000000437600000000043760000000004367000000000437200000000043670000000003000000000000000000002000000000000002470000000000010799990000000000000009999123100000010000000000000BRBRAXCTF002100
012012122612BRCR11      010FII BC FUND CI           R$  000000001537900000000153790000000015301000000001536500000000153690000000015360000000001536900111000000000000009295000000000142826095000000000000009999123100000010000000000000BRBRCRCTF000124
012012122602BRFS3       010BRF FOODS   ON      NM   R$  000000000423200000000042950000000004226000000000426400000000042790000000004278000000000427904061000000000001559000000000006647845800000000000000009999123100000010000000000000BRBRFSACNOR8107
012012122696BRFS3F      020BRF FOODS   ON      NM   R$  000000000422000000000042950000000004201000000000426200000000042770000000004266000000000429100052000000000000001316000000000005609191000000000000009999123100000010000000000000BRBRFSACNOR8107
012012122662BRFS3T      030BRF FOODS   ON      NM033R$  000000000427500000000042760000000004275000000000427500000000042760000000000000000000000000000002000000000000001200000000000005130973000000000000009999123100000010000000000000BRBRFSACNOR8107
012012122662BRFS3T      030BRF FOODS   ON      NM061R$  000000000429800000000043140000000004298000000000430500000000043140000000000000000000000000000010000000000000226700000000000976070984000000000000009999123100000010000000000000BRBRFSACNOR8107
012012122678BRFSA37     070BRFS        ON      NM000R$  000000000059200000000005920000000000592000000000059200000000005920000000000000000000000000000002000000000000030000000000000017760000000000000370002013012100000010000000000000BRBRFSACNOR8107
012012122678BRFSF47     070BRFS        ON      NM000R$  000000000011300000000001130000000000106000000000010600000000001060000000000000000000000000000003000000000000087000000000000009285000000000000470002013061700000010000000000000BRBRFSACNOR8107
012012122682BRFSR36     080BRFSE       ON      NM000R$  000000000004400000000000440000000000044000000000004400000000000440000000000000000000000000000002000000000000087000000000000003828000000000000360002013061700000010000000000000BRBRFSACNOR8107
012012122602BRIN3       010BR INSURANCEON      NM   R$  000000000190100000000019690000000001892000000000192800000000019200000000001920000000000193201048000000000000292500000000000564146200000000000000009999123100000010000000000000BRBRINACNOR3103
012012122696BRIN3F      020BR INSURANCEON      NM   R$  000000000185200000000022000000000001852000000000202800000000021980000000001800000000000220000012000000000000000185000000000000375260000000000000009999123100000010000000000000BRBRINACNOR3103
012012122662BRIN3T      030BR INSURANCEON      NM033R$  000000000195800000000019590000000001958000000000195800000000019590000000000000000000000000000002000000000000015000000000000029372621000000000000009999123100000010000000000000BRBRINACNOR3103
012012122602BRIV3       010ALFA INVEST ON           R$  000000000057000000000005710000000000570000000000057000000000005710000000000570000000000058900004000000000000006200000000000003540100000000000000009999123100000010000000000000BRBRIVACNOR6195
012012122602BRIV4       010ALFA INVEST PN           R$  000000000049900000000005000000000000493000000000049800000000004990000000000486000000000050000018000000000000015700000000000007826900000000000000009999123100000010000000000000BRBRIVACNPR3195
012012122696BRIV4F      020ALFA INVEST PN           R$  000000000050000000000005000000000000496000000000049900000000004960000000000494000000000049600004000000000000000120000000000000059920000000000000009999123100000010000000000000BRBRIVACNPR3195
012012122602BRKM3       010BRASKEM     ON      N1   R$  000000000098000000000009800000000000948000000000095700000000009480000000000945000000000094800017000000000000016200000000000015510600000000000000009999123100000010000000000000BRBRKMACNOR1110
012012122696BRKM3F      020BRASKEM     ON      N1   R$  000000000099000000000009900000000000975000000000098200000000009750000000000945000000000108100004000000000000000048000000000000047160000000000000009999123100000010000000000000BRBRKMACNOR1110
012012122602BRKM5       010BRASKEM     PNA     N1   R$  000000000128600000000013050000000001281000000000129100000000012910000000001288000000000129103153000000000000658200000000000849826200000000000000009999123100000010000000000000BRBRKMACNPA4110
012012122696BRKM5F      020BRASKEM     PNA     N1   R$  000000000129100000000013020000000001280000000000128900000000012800000000001280000000000130200028000000000000000845000000000001089382000000000000009999123100000010000000000000BRBRKMACNPA4110
012012122602BRML3       010BR MALLS PARON      NM   R$  000000000272100000000027600000000002695000000000272000000000027120000000002704000000000271202709000000000001105600000000003007250500000000000000009999123100000010000000000000BRBRMLACNOR9104
012012122696BRML3F      020BR MALLS PARON      NM   R$  000000000275200000000027520000000002695000000000272000000000026950000000002700000000000273900030000000000000000729000000000001983049000000000000009999123100000010000000000000BRBRMLACNOR9104
012012122678BRMLA25     070BRML        ON      NM000R$  000000000023900000000002390000000000239000000000023900000000002390000000000000000000000000000002000000000000080000000000000019120000000000000250002013012100000010000000000000BRBRMLACNOR9104
012012122602BRPR3       010BR PROPERT  ON      NM   R$  000000000253800000000025780000000002515000000000255300000000025360000000002536000000000253702834000000000000642200000000001639939400000000000000009999123100000010000000000000BRBRPRACNOR9111
012012122696BRPR3F      020BR PROPERT  ON      NM   R$  000000000255100000000025800000000002497000000000255300000000025500000000002511000000000255000038000000000000001090000000000002783772000000000000009999123100000010000000000000BRBRPRACNOR9111
012012122662BRPR3T      030BR PROPERT  ON      NM033R$  000000000259000000000025930000000002590000000000259100000000025930000000000000000000000000000006000000000000012000000000000031094307000000000000009999123100000010000000000000BRBRPRACNOR9111
012012122602BRSR3       010BANRISUL    ON  ED  N1   R$  000000000128100000000012810000000001280000000000128000000000012800000000000800000000000128000003000000000000001800000000000002304100000000000000009999123100000010000000000000BRBRSRACNOR3127
012012122696BRSR5F      020BANRISUL    PNA ED  N1   R$  000000000150000000000015000000000001500000000000150000000000015000000000001502000000000157100003000000000000000025000000000000037500000000000000009999123100000010000000000000BRBRSRACNPA6131
012012122602BRSR6       010BANRISUL    PNB ED  N1   R$  000000000159600000000015960000000001542000000000156900000000015430000000001543000000000154501022000000000000364200000000000571368700000000000000009999123100000010000000000000BRBRSRACNPB4130
012012122696BRSR6F      020BANRISUL    PNB ED  N1   R$  000000000159500000000015950000000001547000000000156900000000015470000000001530000000000157000010000000000000000319000000000000500824000000000000009999123100000010000000000000BRBRSRACNPB4130
012012122602BTOW3       010B2W VAREJO  ON      NM   R$  000000000170000000000017470000000001672000000000168600000000016740000000001674000000000168401438000000000000492000000000000829325300000000000000009999123100000010000000000000BRBTOWACNOR8105
012012122696BTOW3F      020B2W VAREJO  ON      NM   R$  000000000172400000000017240000000001651000000000168100000000016850000000001652000000000169600022000000000000000711000000000001195768000000000000009999123100000010000000000000BRBTOWACNOR8105
012012122662BTOW3T      030B2W VAREJO  ON      NM016R$  000000000169500000000016960000000001695000000000169500000000016960000000000000000000000000000002000000000000003000000000000005085717000000000000009999123100000010000000000000BRBTOWACNOR8105
012012122662BTOW3T      030B2W VAREJO  ON      NM061R$  000000000169400000000016950000000001694000000000169400000000016950000000000000000000000000000002000000000000005000000000000008473825000000000000009999123100000010000000000000BRBTOWACNOR8105
012012122602BTTL4       010BATTISTELLA PN           R$  000000000010700000000001070000000000105000000000010600000000001050000000000103000000000010500005000000000000006900000000000000735900000000000000009999123100000010000000000000BRBTTLACNPR7105
012012122602BVMF3       010BMFBOVESPA  ON      NM   R$  000000000137600000000014100000000001376000000000139300000000014010000000001395000000000140110389000000000012088100000000016850104500000000000000009999123100000010000000000000BRBVMFACNOR3123
012012122696BVMF3F      020BMFBOVESPA  ON      NM   R$  000000000136000000000014070000000001360000000000139100000000013910000000001380000000000139500106000000000000003328000000000004630855000000000000009999123100000010000000000000BRBVMFACNOR3123
012012122662BVMF3T      030BMFBOVESPA  ON      NM061R$  000000000140600000000014070000000001406000000000140600000000014070000000000000000000000000000002000000000000030000000000000042203721000000000000009999123100000010000000000000BRBVMFACNOR3123
012012122678BVMFA10     070BVMF        ON      NM000R$  000000000040700000000004070000000000392000000000039700000000003970000000000382000000000000000009000000000000003100000000000001232400000000000100002013012100000010000000000000BRBVMFACNOR3123
012012122678BVMFA11     070BVMF        ON      NM000R$  000000000030800000000003110000000000296000000000030200000000002970000000000290000000000000000006000000000000003400000000000001027100000000000110002013012100000010000000000000BRBVMFACNOR3123
012012122678BVMFA12     070BVMF        ON      NM000R$  000000000020800000000002230000000000202000000000021000000000002150000000000215000000000021600367000000000000321500000000000067526600000000000118902013012100000010000000000000BRBVMFACNOR3122
012012122678BVMFA13     070BVMF        ON      NM000R$  000000000011000000000001330000000000110000000000012100000000001150000000000113000000000012600405000000000000283400000000000034389600000000000128902013012100000010000000000000BRBVMFACNOR3122
012012122678BVMFA14     070BVMF  FM    ON      NM000R$  000000000004200000000000550000000000042000000000004800000000000450000000000044000000000004500278000000000000410900000000000019749400000000000138902013012100000010000000000000BRBVMFACNOR3122
012012122678BVMFA15     070BVMF  FM    ON      NM000R$  000000000001000000000000130000000000008000000000001000000000000100000000000009000000000001000096000000000000413400000000000004205600000000000150002013012100000010000000000000BRBVMFACNOR3123
012012122678BVMFA16     070BVMF        ON      NM000R$  000000000000100000000000020000000000001000000000000100000000000020000000000001000000000000200009000000000000025300000000000000035100000000000160002013012100000010000000000000BRBVMFACNOR3123
012012122678BVMFA3      070BVMFE       ON      NM000R$  000000000008500000000000850000000000085000000000008500000000000850000000000000000000000000000001000000000000000900000000000000076500000000000132902013012100000010000000000000BRBVMFACNOR3122
012012122678BVMFA38     070BVMF        ON      NM000R$  000000000016600000000001660000000000158000000000016000000000001640000000000101000000000123900003000000000000001200000000000000192600000000000123902013012100000010000000000000BRBVMFACNOR3122
012012122678BVMFA39     070BVMF  FM    ON      NM000R$  000000000008900000000000900000000000072000000000008200000000000740000000000012000000000133900009000000000000026600000000000002198500000000000133902013012100000010000000000000BRBVMFACNOR3122
012012122678BVMFA40     070BVMF  FM    ON      NM000R$  000000000003000000000000300000000000025000000000002700000000000250000000000017000000000000000005000000000000014900000000000000407500000000000143902013012100000010000000000000BRBVMFACNOR3122
012012122678BVMFB12     070BVMF        ON      NM000R$  000000000019600000000001960000000000196000000000019600000000001960000000000150000000000000000002000000000000001500000000000000294000000000000120002013021800000010000000000000BRBVMFACNOR3123
012012122678BVMFB13     070BVMF        ON      NM000R$  000000000013100000000001380000000000115000000000012000000000001170000000000001000000000014500231000000000000210400000000000025402000000000000130002013021800000010000000000000BRBVMFACNOR3123
012012122678BVMFB14     070BVMF  FM    ON      NM000R$  000000000006200000000000710000000000056000000000006300000000000640000000000049000000000006500040000000000000090100000000000005760000000000000140002013021800000010000000000000BRBVMFACNOR3123
012012122678BVMFB15     070BVMF  FM    ON      NM000R$  000000000002200000000000270000000000020000000000002200000000000210000000000011000000000003100166000000000000205200000000000004663900000000000150002013021800000010000000000000BRBVMFACNOR3123
012012122678BVMFB39     070BVMF  FM    ON      NM000R$  000000000009000000000001010000000000085000000000009300000000000900000000000001000000000035500011000000000000023200000000000002178800000000000135002013021800000010000000000000BRBVMFACNOR3123
012012122678BVMFB40     070BVMF  FM    ON      NM000R$  000000000004200000000000420000000000042000000000004200000000000420000000000001000000000025500001000000000000002100000000000000088200000000000145002013021800000010000000000000BRBVMFACNOR3123
012012122678BVMFB41     070BVMF  FM    ON      NM000R$  000000000001300000000000130000000000013000000000001300000000000130000000000006000000000008800004000000000000012800000000000000166400000000000155002013021800000010000000000000BRBVMFACNOR3123
012012122678BVMFF45     070BVMF        ON      NM000R$  000000000005300000000000530000000000053000000000005300000000000530000000000000000000000000000002000000000000534000000000000028302000000000000155002013061700000010000000000000BRBVMFACNOR3123
012012122682BVMFM12     080BVMFE       ON      NM000R$  000000000000200000000000030000000000001000000000000200000000000020000000000002000000000000300183000000000000111600000000000000258500000000000118902013012100000010000000000000BRBVMFACNOR3122
012012122682BVMFM13     080BVMFE FM    ON      NM000R$  000000000001000000000000100000000000006000000000000700000000000080000000000008000000000000900142000000000000039000000000000000292600000000000128902013012100000010000000000000BRBVMFACNOR3122
012012122682BVMFM14     080BVMFE FM    ON      NM000R$  000000000003100000000000390000000000031000000000003500000000000350000000000022000000000000000026000000000000018200000000000000653800000000000138902013012100000010000000000000BRBVMFACNOR3122
012012122682BVMFM38     080BVMFE       ON      NM000R$  000000000000400000000000040000000000004000000000000400000000000040000000000000000000000000000003000000000000009000000000000000036000000000000123902013012100000010000000000000BRBVMFACNOR3122
012012122682BVMFM39     080BVMFE FM    ON      NM000R$  000000000002100000000000210000000000020000000000002000000000000200000000000018000000000003000007000000000000019500000000000000396500000000000133902013012100000010000000000000BRBVMFACNOR3122
012012122682BVMFM40     080BVMFE FM    ON      NM000R$  000000000006500000000000700000000000056000000000006100000000000650000000000000000000000000000016000000000000052600000000000003237800000000000143902013012100000010000000000000BRBVMFACNOR3122
012012122682BVMFN12     080BVMFE       ON      NM000R$  000000000000100000000000010000000000001000000000000100000000000010000000000001000000000000900001000000000000000500000000000000000500000000000120002013021800000010000000000000BRBVMFACNOR3123
012012122682BVMFN13     080BVMFE FM    ON      NM000R$  000000000002000000000000240000000000020000000000002200000000000220000000000021000000000000000019000000000000006300000000000000141500000000000130002013021800000010000000000000BRBVMFACNOR3123
012012122682BVMFN14     080BVMFE FM    ON      NM000R$  000000000006000000000000600000000000051000000000005400000000000600000000000000000000000000000008000000000000015000000000000000815000000000000140002013021800000010000000000000BRBVMFACNOR3123
012012122682BVMFN39     080BVMFE FM    ON      NM000R$  000000000003800000000000380000000000033000000000003500000000000370000000000000000000000000000003000000000000009200000000000000328600000000000135002013021800000010000000000000BRBVMFACNOR3123
012012122682BVMFN40     080BVMFE FM    ON      NM000R$  000000000008200000000000820000000000077000000000007800000000000790000000000000000000000000000006000000000000022500000000000001762000000000000145002013021800000010000000000000BRBVMFACNOR3123
012012122682BVMFR12     080BVMFE       ON      NM000R$  000000000002500000000000260000000000025000000000002500000000000260000000000000000000000000000003000000000000267000000000000006808500000000000120002013061700000010000000000000BRBVMFACNOR3123
012012122602CAMB4       010CAMBUCI     PN           R$  000000000019900000000002100000000000199000000000020800000000002020000000000201000000000020900010000000000000003100000000000000647000000000000000009999123100000010000000000000BRCAMBACNPR1116
012012122696CAMB4F      020CAMBUCI     PN           R$  000000000019900000000001990000000000199000000000019900000000001990000000000198000000000021000001000000000000000001000000000000000199000000000000009999123100000010000000000000BRCAMBACNPR1116
012012122602CARD3       010CSU CARDSYSTON  EJ  NM   R$  000000000041300000000004190000000000410000000000041400000000004150000000000413000000000041500041000000000000041000000000000016985700000000000000009999123100000010000000000000BRCARDACNOR9105
012012122602CBEE3       010AMPLA ENERG ON *         R$  000000000012900000000001290000000000110000000000011000000000001120000000000112000000000012800016000000000016500000000000000001831100000000000000009999123100010000000000000000BRCBEEACNOR3148
012012122696CBEE3F      020AMPLA ENERG ON *         R$  000000000012700000000001270000000000119000000000012300000000001190000000000095000000000010800005000000000000128807000000000000015939000000000000009999123100010000000000000000BRCBEEACNOR3148
012012122696CBMA3F      020COBRASMA    ON           R$  000000000000800000000000080000000000008000000000000800000000000080000000000006000000000000800001000000000000000001000000000000000008000000000000009999123100000010000000000000BRCBMAACNOR4124
012012122602CBMA4       010COBRASMA    PN           R$  000000000000600000000000060000000000006000000000000600000000000060000000000006000000000000700014000000000000770000000000000004620000000000000000009999123100000010000000000000BRCBMAACNPR1124
012012122696CBMA4F      020COBRASMA    PN           R$  000000000000700000000000070000000000007000000000000700000000000070000000000006000000000000700001000000000000000001000000000000000007000000000000009999123100000010000000000000BRCBMAACNPR1124
012012122608CCHI3       010CHIARELLI   ON           R$  000000000001200000000000120000000000012000000000001200000000000120000000000011000000000001200007000000000000100000000000000001200000000000000000009999123100000010000000000000BRCCHIACNOR5123
012012122608CCHI4       010CHIARELLI   PN           R$  000000000000700000000000070000000000007000000000000700000000000070000000000006000000000000800003000000000000050000000000000000350000000000000000009999123100000010000000000000BRCCHIACNPR2122
012012122602CCPR3       010CYRE COM-CCPON      NM   R$  000000000249900000000024990000000002499000000000249900000000024990000000002400000000000249900001000000000000003000000000000007497000000000000000009999123100000010000000000000BRCCPRACNOR9106
012012122602CCRO3       010CCR SA      ON      NM   R$  000000000186900000000018980000000001869000000000188200000000018780000000001878000000000188104220000000000001258700000000002369679400000000000000009999123100000010000000000000BRCCROACNOR2121
012012122696CCRO3F      020CCR SA      ON      NM   R$  000000000189900000000018990000000001854000000000188300000000018790000000001879000000000189200046000000000000001246000000000002347455000000000000009999123100000010000000000000BRCCROACNOR2121
012012122678CCROF21     070CCRO        ON      NM000R$  000000000004800000000000480000000000048000000000004800000000000480000000000000000000000000000002000000000000390000000000000018720000000000000210002013061700000010000000000000BRCCROACNOR2121
012012122682CCROR46     080CCROE       ON      NM000R$  000000000003000000000000300000000000030000000000003000000000000300000000000000000000000000000002000000000000390000000000000011700000000000000165002013061700000010000000000000BRCCROACNOR2121
012012122602CCXC3       010CCX CARVAO  ON      NM   R$  000000000020600000000002070000000000204000000000020500000000002050000000000205000000000020600217000000000000161800000000000033232400000000000000009999123100000010000000000000BRCCXCACNOR5100
012012122696CCXC3F      020CCX CARVAO  ON      NM   R$  000000000020100000000002010000000000201000000000020100000000002010000000000203000000000024400003000000000000000130000000000000026230000000000000009999123100000010000000000000BRCCXCACNOR5100
012012122602CEBR5       010CEB         PNA          R$  000000000230600000000023060000000002306000000000230600000000023060000000002305000000000269900001000000000000001000000000000002306000000000000000009999123100000010000000000000BRCEBRACNPA8112
012012122662CEBR5T      030CEB         PNA       180R$  000000000239700000000023980000000002397000000000239700000000023980000000000000000000000000000002000000000000001000000000000002397087000000000000009999123100000010000000000000BRCEBRACNPA8112
012012122602CEDO4       010CEDRO       PN      N1   R$  000000000080900000000008090000000000808000000000080800000000008090000000000808000000000083000008000000000000005500000000000004449200000000000000009999123100000010000000000000BRCEDOACNPR5125
012012122612CEOC11B     010FII CEO CCP CI      MB   R$  000000001040800000000104800000000010370000000001042900000000104800000000010451000000001048000071000000000000004416000000000046058685000000000000009999123100000010000000000000BRCEOCCTF003101
012012122602CEPE5       010CELPE       PNA          R$  000000000210000000000021000000000002050000000000207900000000020500000000002000000000000230500006000000000000001200000000000002495000000000000000009999123100000010000000000000BRCEPEACNPA6150
012012122602CESP3       010CESP        ON      N1   R$  000000000149000000000015010000000001490000000000149500000000015010000000001500000000000154500006000000000000004100000000000006131200000000000000009999123100000010000000000000BRCESPACNOR3157
012012122602CESP5       010CESP        PNA     N1   R$  000000000185200000000019020000000001850000000000185900000000018570000000001852000000000198900020000000000000006900000000000012831100000000000000009999123100000010000000000000BRCESPACNPA6107
012012122602CESP6       010CESP        PNB     N1   R$  000000000182600000000019300000000001823000000000188100000000018820000000001882000000000189501641000000000000789900000000001486091500000000000000009999123100000010000000000000BRCESPACNPB4116
012012122696CESP6F      020CESP        PNB     N1   R$  000000000183900000000019290000000001839000000000188300000000019230000000001862000000000192900023000000000000000696000000000001310738000000000000009999123100000010000000000000BRCESPACNPB4116
012012122662CESP6T      030CESP        PNB     N1033R$  000000000184400000000018450000000001844000000000184400000000018450000000000000000000000000000002000000000000005000000000000009221352000000000000009999123100000010000000000000BRCESPACNPB4116
012012122662CESP6T      030CESP        PNB     N1120R$  000000000190900000000019100000000001909000000000190900000000019100000000000000000000000000000006000000000000233500000000000445971224000000000000009999123100000010000000000000BRCESPACNPB4116
012012122602CGAS3       010COMGAS      ON           R$  000000000540000000000055120000000005400000000000540200000000054000000000005290000000000540000006000000000000004200000000000022691200000000000000009999123100000010000000000000BRCGASACNOR0132
012012122602CGAS5       010COMGAS      PNA          R$  000000000582900000000060100000000005820000000000593900000000059500000000005935000000000595000349000000000000100700000000000598156800000000000000009999123100000010000000000000BRCGASACNPA3129
012012122696CGAS5F      020COMGAS      PNA          R$  000000000582500000000065830000000005701000000000593400000000059510000000005948000000000595100034000000000000000735000000000004361804000000000000009999123100000010000000000000BRCGASACNPA3129
012012122662CGAS5T      030COMGAS      PNA       090R$  000000000604500000000060460000000006045000000000604500000000060460000000000000000000000000000002000000000000000200000000000001209054000000000000009999123100000010000000000000BRCGASACNPA3129
012012122602CGRA3       010GRAZZIOTIN  ON  EJ       R$  000000000156000000000015900000000001560000000000158600000000015900000000001560000000000159000003000000000000001900000000000003015000000000000000009999123100000010000000000000BRCGRAACNOR2061
012012122602CGRA4       010GRAZZIOTIN  PN  EJ       R$  000000000158400000000015840000000001534000000000155900000000015640000000001564000000000156500026000000000000017300000000000026985200000000000000009999123100000010000000000000BRCGRAACNPR9061
012012122602CHVX11B     010CHEVRON     DRN     MB   R$  000000002233900000000223390000000022339000000002233900000000223390000000000000000000000000000001000000000000000100000000000002233900000000000000009999123100000010000000000000BRCHVXBDR008106
012012122602CIEL3       010CIELO       ON      NM   R$  000000000550000000000055990000000005436000000000553200000000054810000000005481000000000550003592000000000002077200000000011492728900000000000000009999123100000010000000000000BRCIELACNOR3109
012012122696CIEL3F      020CIELO       ON      NM   R$  000000000550000000000055990000000005450000000000553500000000055440000000005502000000000559400080000000000000001992000000000011022463000000000000009999123100000010000000000000BRCIELACNOR3109
012012122662CIEL3T      030CIELO       ON      NM016R$  000000000549700000000054980000000005497000000000549700000000054980000000000000000000000000000002000000000000013000000000000071466759000000000000009999123100000010000000000000BRCIELACNOR3109
012012122662CIEL3T      030CIELO       ON      NM033R$  000000000548100000000055150000000005481000000000549100000000055150000000000000000000000000000008000000000000001700000000000009335335000000000000009999123100000010000000000000BRCIELACNOR3109
012012122662CIEL3T      030CIELO       ON      NM061R$  000000000555900000000056560000000005559000000000557400000000056560000000000000000000000000000012000000000000542800000000003025972186000000000000009999123100000010000000000000BRCIELACNOR3109
012012122682CIELM54     080CIELE       ON      NM000R$  000000000006100000000000610000000000061000000000006100000000000610000000000000000000000000000001000000000000000200000000000000012200000000000540002013012100000010000000000000BRCIELACNOR3109
012012122682CIELN53     080CIELE       ON      NM000R$  000000000007500000000000750000000000075000000000007500000000000750000000000000000000000000000001000000000000000100000000000000007500000000000530002013021800000010000000000000BRCIELACNOR3109
012012122602CLSC4       010CELESC      PN      N2   R$  000000000239900000000026150000000002399000000000259500000000025980000000002580000000000259800141000000000000041800000000000108491600000000000000009999123100000010000000000000BRCLSCACNPR3107
012012122696CLSC4F      020CELESC      PN      N2   R$  000000000252000000000026140000000002499000000000253700000000026140000000002501000000000257500014000000000000000329000000000000834881000000000000009999123100000010000000000000BRCLSCACNPR3107
012012122602CMCS11B     010COMCAST     DRN     MB   R$  000000000765100000000076510000000007651000000000765100000000076510000000000000000000000000000001000000000000000400000000000003060400000000000000009999123100000010000000000000BRCMCSBDR008103
012012122658CMGR3       010CEMAT       ON           R$  000000000056700000000005670000000000567000000000056700000000005670000000000500000000000056700005000000000000000500000000000000283500000000000000009999123100000010000000000000BRCMGRACNOR7114
012012122602CMIG3       010CEMIG       ON  EDJ N1   R$  000000000215000000000022000000000002150000000000216500000000021520000000002149000000000215202229000000000001083300000000002346003700000000000000009999123100000010000000000000BRCMIGACNOR6207
012012122696CMIG3F      020CEMIG       ON  EDJ N1   R$  000000000216900000000022200000000002148000000000217100000000021800000000002155000000000218000055000000000000001236000000000002684496000000000000009999123100000010000000000000BRCMIGACNOR6207
012012122662CMIG3T      030CEMIG       ON  EDJ N1033R$  000000000218100000000021820000000002181000000000218100000000021820000000000000000000000000000002000000000000000100000000000000218109000000000000009999123100000010000000000000BRCMIGACNOR6207
012012122602CMIG4       010CEMIG       PN  EDJ N1   R$  000000000232400000000023240000000002185000000000223800000000022190000000002218000000000221919403000000000015221000000000034060438100000000000000009999123100000010000000000000BRCMIGACNPR3207
012012122696CMIG4F      020CEMIG       PN  EDJ N1   R$  000000000239500000000023950000000002190000000000223600000000022100000000002210000000000225000368000000000000008773000000000019599865000000000000009999123100000010000000000000BRCMIGACNPR3207
012012122662CMIG4S      030CEMIG       PN  EDJ N1061R$  000000000222500000000022260000000002225000000000222500000000022260000000000000000000000000000002000000000000000200000000000000445060000000000000009999123100000010000000000000BRCMIGACNPR3207
012012122662CMIG4T      030CEMIG       PN  EDJ N1061R$  000000000229500000000022960000000002222000000000227100000000022450000000000000000000000000000010000000000000007500000000000017037695000000000000009999123100000010000000000000BRCMIGACNPR3207
012012122662CMIG4T      030CEMIG       PN  EDJ N1090R$  000000000223400000000022390000000002229000000000223100000000022310000000000000000000000000000010000000000000012500000000000027892310000000000000009999123100000010000000000000BRCMIGACNPR3207
012012122662CMIG4T      030CEMIG       PN  EDJ N1120R$  000000000230100000000023260000000002241000000000224200000000022420000000000000000000000000000006000000000000101400000000000227371041000000000000009999123100000010000000000000BRCMIGACNPR3207
012012122662CMIG4T      030CEMIG       PN  EDJ N1180R$  000000000233100000000023320000000002275000000000232800000000022760000000000000000000000000000004000000000000030000000000000069845978000000000000009999123100000010000000000000BRCMIGACNPR3207
012012122662CMIG4T      030CEMIG       PN  EDJ N1016R$  000000000223200000000022330000000002232000000000223200000000022330000000000000000000000000000002000000000000005700000000000012726172000000000000009999123100000010000000000000BRCMIGACNPR3207
012012122662CMIG4T      030CEMIG       PN  EDJ N1030R$  000000000220700000000022080000000002207000000000220700000000022080000000000000000000000000000002000000000000002000000000000004414584000000000000009999123100000010000000000000BRCMIGACNPR3207
012012122662CMIG4T      030CEMIG       PN  EDJ N1033R$  000000000230000000000023380000000002208000000000223700000000023030000000000000000000000000000054000000000000045000000000000100698295000000000000009999123100000010000000000000BRCMIGACNPR3207
012012122662CMIG4T      030CEMIG       PN  EDJ N1044R$  000000000222600000000022280000000002226000000000222600000000022280000000000000000000000000000004000000000000002000000000000004453747000000000000009999123100000010000000000000BRCMIGACNPR3207
012012122678CMIGA25     070CMIG    /EDJPN      N1000R$  000000000015500000000001550000000000122000000000013700000000001220000000000100000000000000000011000000000000020300000000000002781900000000000214302013012100000010000000000000BRCMIGACNPR3206
012012122678CMIGA26     070CMIG    /EDJPN      N1000R$  000000000007500000000000780000000000050000000000006300000000000500000000000010000000000007000027000000000000046800000000000002960700000000000224302013012100000010000000000000BRCMIGACNPR3206
012012122678CMIGA27     070CMIG    /EDJPN      N1000R$  000000000004000000000000400000000000035000000000003500000000000350000000000000000000000004000003000000000000004100000000000000146000000000000234302013012100000010000000000000BRCMIGACNPR3206
012012122678CMIGA28     070CMIG    /EDJPN      N1000R$  000000000003000000000000300000000000025000000000002500000000000250000000000000000000000002600003000000000000004100000000000000103000000000000244302013012100000010000000000000BRCMIGACNPR3206
012012122612CNES11B     010FII CENESP  CI  ER  MB   R$  000000001320000000000134000000000013200000000001328500000000134000000000013200000000001340000009000000000000000126000000000001674000000000000000009999123100000010000000000000BRCNESCTF001117
012012122602COCA11B     010COCA COLA   DRN     MB   R$  000000000750000000000075110000000007494000000000749900000000075110000000000000000000000000000003000000000000000400000000000002999900000000000000009999123100000010000000000000BRCOCABDR002106
012012122602COCE3       010COELCE      ON           R$  000000000438300000000044100000000004383000000000439600000000044090000000004000000000000440900009000000000000002100000000000009233000000000000000009999123100000010000000000000BRCOCEACNOR0131
012012122602COCE5       010COELCE      PNA          R$  000000000438700000000044600000000004270000000000436900000000043650000000004365000000000438800271000000000000188500000000000823600900000000000000009999123100000010000000000000BRCOCEACNPA3132
012012122696COCE5F      020COELCE      PNA          R$  000000000435900000000044200000000004330000000000436200000000044100000000004350000000000441000020000000000000000360000000000001570607000000000000009999123100000010000000000000BRCOCEACNPA3132
012012122602CPFE3       010CPFL ENERGIAON      NM   R$  000000000219500000000022190000000002154000000000217500000000021540000000002154000000000217502659000000000000740900000000001611858900000000000000009999123100000010000000000000BRCPFEACNOR0120
012012122696CPFE3F      020CPFL ENERGIAON      NM   R$  000000000220000000000022000000000002166000000000217900000000021690000000002170000000000229000036000000000000001041000000000002265267000000000000009999123100000010000000000000BRCPFEACNOR0120
012012122662CPFE3T      030CPFL ENERGIAON      NM033R$  000000000218100000000021820000000002180000000000218100000000021810000000000000000000000000000004000000000000002000000000000004363235000000000000009999123100000010000000000000BRCPFEACNOR0120
012012122602CPLE3       010COPEL       ON      N1   R$  000000000255300000000025650000000002500000000000254000000000025000000000002500000000000259000067000000000000043700000000000110998400000000000000009999123100000010000000000000BRCPLEACNOR8126
012012122662CPLE3T      030COPEL       ON      N1033R$  000000000257600000000025770000000002576000000000257600000000025770000000000000000000000000000002000000000000026000000000000066978857000000000000009999123100000010000000000000BRCPLEACNOR8126
012012122602CPLE6       010COPEL       PNB     N1   R$  000000000320800000000032530000000003163000000000319000000000031750000000003172000000000317501550000000000000267800000000000854121200000000000000009999123100000010000000000000BRCPLEACNPB9123
012012122696CPLE6F      020COPEL       PNB     N1   R$  000000000325000000000032500000000003161000000000319500000000031700000000003160000000000327900016000000000000000435000000000001390122000000000000009999123100000010000000000000BRCPLEACNPB9123
012012122602CRDE3       010CR2         ON      NM   R$  000000000048900000000004900000000000485000000000048900000000004850000000000484000000000048500005000000000000021000000000000010272000000000000000009999123100000010000000000000BRCRDEACNOR1108
012012122602CREM3       010CREMER      ON      NM   R$  000000000127700000000012840000000001267000000000127400000000012800000000001271000000000128400013000000000000003200000000000004077400000000000000009999123100000010000000000000BRCREMACNOR2164
012012122696CREM3F      020CREMER      ON      NM   R$  000000000126900000000012690000000001256000000000126400000000012560000000001257000000000140900003000000000000000038000000000000048058000000000000009999123100000010000000000000BRCREMACNOR2164
012012122602CRIV4       010ALFA FINANC PN           R$  000000000047300000000004730000000000454000000000045700000000004540000000000453000000000046800025000000000000059400000000000027147500000000000000009999123100000010000000000000BRCRIVACNPR1188
012012122602CRUZ3       010SOUZA CRUZ  ON  EJ       R$  000000000307800000000031300000000003072000000000311900000000031100000000003109000000000311203113000000000000880300000000002745994800000000000000009999123100000010000000000000BRCRUZACNOR0243
012012122696CRUZ3F      020SOUZA CRUZ  ON  EJ       R$  000000000309600000000031350000000003096000000000311700000000031010000000003101000000000311000063000000000000001755000000000005470315000000000000009999123100000010000000000000BRCRUZACNOR0243
012012122662CRUZ3T      030SOUZA CRUZ  ON  EJ    061R$  000000000314000000000031410000000003140000000000314000000000031410000000000000000000000000000002000000000000003000000000000009420270000000000000009999123100000010000000000000BRCRUZACNOR0243
012012122678CRUZB31     070CRUZ    /EJ ON        000R$  000000000015900000000001590000000000159000000000015900000000001590000000000000000000000000000002000000000000004800000000000000763200000000000310002013021800000010000000000000BRCRUZACNOR0243
012012122678CRUZB34     070CRUZ    /EJ ON        000R$  000000000002600000000000270000000000026000000000002600000000000270000000000000000000000000000003000000000000009600000000000000253200000000000340002013021800000010000000000000BRCRUZACNOR0243
012012122602CSAN3       010COSAN       ON      NM   R$  000000000418000000000042850000000004151000000000424700000000042370000000004232000000000423702738000000000000692700000000002942248700000000000000009999123100000010000000000000BRCSANACNOR6107
012012122696CSAN3F      020COSAN       ON      NM   R$  000000000418500000000043000000000004151000000000423500000000043000000000004225000000000430000048000000000000001388000000000005879433000000000000009999123100000010000000000000BRCSANACNOR6107
012012122662CSAN3T      030COSAN       ON      NM016R$  000000000424900000000042530000000004248000000000424900000000042500000000000000000000000000000010000000000000010000000000000042494526000000000000009999123100000010000000000000BRCSANACNOR6107
012012122662CSAN3T      030COSAN       ON      NM061R$  000000000428500000000042870000000004281000000000428200000000042820000000000000000000000000000010000000000000090000000000000385434585000000000000009999123100000010000000000000BRCSANACNOR6107
012012122612CSBC11      010FII CSHG BC CI           R$  000000012020000000001247000000000120000000000012250300000001200000000000119000000000012000000010000000000000000093000000000011392804000000000000009999123100000010000000000000BRCSBCCTF000132
012012122602CSCO11B     010CISCO       DRN     MB   R$  000000000407000000000040910000000004070000000000408600000000040910000000000000000000000000000002000000000000000500000000000002043400000000000000009999123100000010000000000000BRCSCOBDR004108
012012122602CSMG3       010COPASA      ON  INT NM   R$  000000000436400000000044520000000004364000000000439400000000043900000000004390000000000440700992000000000000223400000000000981771700000000000000009999123100000010000000000000BRCSMGACNOR5124
012012122696CSMG3F      020COPASA      ON  INT NM   R$  000000000440000000000044000000000004380000000000438700000000043800000000004380000000000445000006000000000000000157000000000000688942000000000000009999123100000010000000000000BRCSMGACNOR5124
012012122614CSMO11      010ISHARES CSMOCI           R$  000000000467100000000046930000000004671000000000468000000000046760000000004671000000000499000006000000000000000260000000000001216820000000000000009999123100000010000000000000BRCSMOCTF002100
012012122602CSNA3       010SID NACIONALON           R$  000000000116800000000011890000000001162000000000117500000000011780000000001175000000000117805402000000000002651200000000003115985600000000000000009999123100000010000000000000BRCSNAACNOR6240
012012122696CSNA3F      020SID NACIONALON           R$  000000000118800000000012090000000001166000000000117500000000011780000000001178000000000120000063000000000000001599000000000001880555000000000000009999123100000010000000000000BRCSNAACNOR6240
012012122662CSNA3S      030SID NACIONALON        061R$  000000000119000000000011910000000001190000000000119000000000011910000000000000000000000000000002000000000000010000000000000011905355000000000000009999123100000010000000000000BRCSNAACNOR6240
012012122662CSNA3T      030SID NACIONALON        061R$  000000000118100000000011880000000001178000000000117900000000011880000000000000000000000000000010000000000000020100000000000023710046000000000000009999123100000010000000000000BRCSNAACNOR6240
012012122662CSNA3T      030SID NACIONALON        090R$  000000000119000000000012020000000001189000000000119000000000012010000000000000000000000000000016000000000000094400000000000112371674000000000000009999123100000010000000000000BRCSNAACNOR6240
012012122662CSNA3T      030SID NACIONALON        016R$  000000000118200000000011830000000001182000000000118200000000011830000000000000000000000000000002000000000000001300000000000001537605000000000000009999123100000010000000000000BRCSNAACNOR6240
012012122662CSNA3T      030SID NACIONALON        033R$  000000000118900000000011900000000001189000000000118900000000011900000000000000000000000000000002000000000000001600000000000001903968000000000000009999123100000010000000000000BRCSNAACNOR6240
012012122678CSNAA11     070CSNA        ON        000R$  000000000010000000000001000000000000100000000000010000000000001000000000000090000000000000000002000000000000003500000000000000350000000000000110002013012100000010000000000000BRCSNAACNOR6240
012012122678CSNAA12     070CSNA  FM    ON        000R$  000000000003500000000000410000000000033000000000003700000000000350000000000035000000000004500028000000000000039400000000000001474300000000000120002013012100000010000000000000BRCSNAACNOR6240
012012122678CSNAA13     070CSNA  FM    ON        000R$  000000000000700000000000080000000000007000000000000700000000000080000000000006000000000001700005000000000000006200000000000000047400000000000130002013012100000010000000000000BRCSNAACNOR6240
012012122678CSNAA37     070CSNA  FM    ON        000R$  000000000005600000000000710000000000056000000000006200000000000660000000000000000000000000000006000000000000006800000000000000425800000000000115002013012100000010000000000000BRCSNAACNOR6240
012012122678CSNAA38     070CSNA  FM    ON        000R$  000000000002000000000000200000000000020000000000002000000000000200000000000000000000000000000002000000000000004000000000000000080000000000000125002013012100000010000000000000BRCSNAACNOR6240
012012122678CSNAB12     070CSNA  FM    ON        000R$  000000000006000000000000680000000000060000000000006200000000000640000000000000000000000000000009000000000000018100000000000001123800000000000120002013021800000010000000000000BRCSNAACNOR6240
012012122678CSNAB13     070CSNA  FM    ON        000R$  000000000002600000000000260000000000026000000000002600000000000260000000000007000000000000000001000000000000002000000000000000052000000000000130002013021800000010000000000000BRCSNAACNOR6240
012012122678CSNAB37     070CSNA  FM    ON        000R$  000000000008400000000000920000000000084000000000008600000000000920000000000000000000000000000009000000000000016100000000000001394200000000000115002013021800000010000000000000BRCSNAACNOR6240
012012122678CSNAB38     070CSNA  FM    ON        000R$  000000000004000000000000430000000000040000000000004100000000000430000000000000000000000005700005000000000000013000000000000000538000000000000125002013021800000010000000000000BRCSNAACNOR6240
012012122682CSNAM11     080CSNAE FM    ON        000R$  000000000002000000000000200000000000020000000000002000000000000200000000000000000000000007000001000000000000002100000000000000042000000000000110002013012100000010000000000000BRCSNAACNOR6240
012012122682CSNAM12     080CSNAE FM    ON        000R$  000000000006200000000000630000000000056000000000006000000000000560000000000000000000000000000023000000000000031700000000000001919100000000000120002013012100000010000000000000BRCSNAACNOR6240
012012122682CSNAM37     080CSNAE FM    ON        000R$  000000000003700000000000370000000000036000000000003600000000000360000000000000000000000000000003000000000000004100000000000000149700000000000115002013012100000010000000000000BRCSNAACNOR6240
012012122682CSNAM38     080CSNAE FM    ON        000R$  000000000009500000000000950000000000082000000000009100000000000820000000000000000000000000000020000000000000030400000000000002778500000000000125002013012100000010000000000000BRCSNAACNOR6240
012012122682CSNAN12     080CSNAE FM    ON        000R$  000000000008200000000000830000000000078000000000008100000000000780000000000000000000000000000009000000000000018300000000000001489800000000000120002013021800000010000000000000BRCSNAACNOR6240
012012122682CSNAN37     080CSNAE FM    ON        000R$  000000000005900000000000590000000000059000000000005900000000000590000000000000000000000009100001000000000000002000000000000000118000000000000115002013021800000010000000000000BRCSNAACNOR6240
012012122682CSNAN38     080CSNAE FM    ON        000R$  000000000011300000000001130000000000112000000000011200000000001120000000000000000000000000000014000000000000020300000000000002277700000000000125002013021800000010000000000000BRCSNAACNOR6240
012012122696CSRN3F      020COSERN      ON           R$  000000000100000000000010000000000001000000000000100000000000010000000000000980000000000100000001000000000000000003000000000000003000000000000000009999123100000010000000000000BRCSRNACNOR0146
012012122602CTAX3       010CONTAX      ON           R$  000000000270000000000027000000000002640000000000266000000000026400000000000000000000000264000003000000000000000300000000000000798000000000000000009999123100000010000000000000BRCTAXACNOR3112
012012122602CTAX4       010CONTAX      PN           R$  000000000255200000000025800000000002501000000000254400000000025690000000002537000000000256900167000000000000061200000000000155708200000000000000009999123100000010000000000000BRCTAXACNPR0113
012012122696CTAX4F      020CONTAX      PN           R$  000000000250000000000025500000000002500000000000251400000000025500000000002401000000000270400003000000000000000050000000000000125700000000000000009999123100000010000000000000BRCTAXACNPR0113
012012122602CTGP11B     010CITIGROUP   DRN     MB   R$  000000000815400000000081540000000008154000000000815400000000081540000000008060000000000815500001000000000000000500000000000004077000000000000000009999123100000010000000000000BRCTGPBDR000108
012012122602CTIP3       010CETIP       ON  EJ  NM   R$  000000000250900000000025740000000002495000000000253400000000025400000000002539000000000254002836000000000001563200000000003961235000000000000000009999123100000010000000000000BRCTIPACNOR2115
012012122696CTIP3F      020CETIP       ON  EJ  NM   R$  000000000252000000000026470000000002511000000000253800000000026470000000002512000000000264900029000000000000000869000000000002205834000000000000009999123100000010000000000000BRCTIPACNOR2115
012012122662CTIP3T      030CETIP       ON  EJ  NM033R$  000000000257400000000025750000000002574000000000257400000000025750000000000000000000000000000002000000000000001000000000000002574403000000000000009999123100000010000000000000BRCTIPACNOR2115
012012122662CTIP3T      030CETIP       ON  EJ  NM120R$  000000000259900000000026000000000002598000000000259800000000025990000000000000000000000000000004000000000000078000000000000202701876000000000000009999123100000010000000000000BRCTIPACNOR2115
012012122678CTIPB27     070CTIP    /EJ ON      NM000R$  000000000004800000000000480000000000040000000000004400000000000400000000000000000000000000000004000000000001425000000000000063600000000000000270002013021800000010000000000000BRCTIPACNOR2115
012012122682CTIPN23     080CTIPE   /EJ ON      NM000R$  000000000003000000000000340000000000030000000000003100000000000340000000000000000000000000000004000000000001425000000000000045150000000000000230002013021800000010000000000000BRCTIPACNOR2115
012012122682CTIPN25     080CTIPE   /EJ ON      NM000R$  000000000008000000000000940000000000080000000000008500000000000940000000000000000000000000000004000000000001425000000000000122400000000000000249402013021800000010000000000000BRCTIPACNOR2114
012012122682CTIPR22     080CTIPE   /EJ ON      NM000R$  000000000004900000000000490000000000049000000000004900000000000490000000000000000000000000000002000000000000146000000000000007154000000000000219402013061700000010000000000000BRCTIPACNOR2114
012012122602CTKA4       010KARSTEN     PN           R$  000000000015800000000001590000000000158000000000015800000000001590000000000145000000000015600003000000000000000400000000000000063300000000000000009999123100000010000000000000BRCTKAACNPR7041
012012122602CTNM3       010COTEMINAS   ON           R$  000000000032500000000003450000000000325000000000033300000000003450000000000301000000000035900003000000000000000300000000000000100000000000000000009999123100000010000000000000BRCTNMACNOR9129
012012122602CTNM4       010COTEMINAS   PN           R$  000000000031400000000003150000000000300000000000030200000000003140000000000314000000000031500219000000000000122600000000000037099700000000000000009999123100000010000000000000BRCTNMACNPR6128
012012122602CTSA3       010SANTANENSE  ON  ED       R$  000000000048000000000004850000000000475000000000047800000000004850000000000470000000000049500005000000000000001800000000000000861000000000000000009999123100000010000000000000BRCTSAACNOR3050
012012122662CTSA3T      030SANTANENSE  ON  ED    061R$  000000000047900000000004800000000000479000000000047900000000004800000000000000000000000000000002000000000000001100000000000000527725000000000000009999123100000010000000000000BRCTSAACNOR3050
012012122602CTSA4       010SANTANENSE  PN  ED       R$  000000000051500000000005300000000000480000000000050600000000004800000000000480000000000053000008000000000000006500000000000003292000000000000000009999123100000010000000000000BRCTSAACNPR0050
012012122662CTSA4T      030SANTANENSE  PN  ED    061R$  000000000048900000000004900000000000489000000000048900000000004900000000000000000000000000000002000000000000001200000000000000587820000000000000009999123100000010000000000000BRCTSAACNPR0050
012012122662CTSA4T      030SANTANENSE  PN  ED    090R$  000000000052200000000005230000000000522000000000052200000000005230000000000000000000000000000002000000000000004000000000000002091312000000000000009999123100000010000000000000BRCTSAACNPR0050
012012122612CXCE11B     010FII CX CEDAECI      MB   R$  000000021200000000002120000000000212000000000021200000000002120000000000204003000000021956100001000000000000000001000000000000212000000000000000009999123100000010000000000000BRCXCECTF004129
012012122612CXTL11      010FII CX TRX  CI           R$  000000010020000000001002000000000100000000000010000800000001000000000000100200000000010180000009000000000000000200000000000020001737000000000000009999123100000010000000000000BRCXTLCTF003112
012012122602CYRE3       010CYRELA REALTON      NM   R$  000000000177500000000018080000000001766000000000179200000000017950000000001794000000000179503318000000000001006100000000001803733200000000000000009999123100000010000000000000BRCYREACNOR7124
012012122696CYRE3F      020CYRELA REALTON      NM   R$  000000000177300000000018050000000001760000000000178400000000017700000000001770000000000180100069000000000000002153000000000003841556000000000000009999123100000010000000000000BRCYREACNOR7124
012012122678CYREA17     070CYRE  FM    ON      NM000R$  000000000012600000000001300000000000126000000000012800000000001280000000000000000000000000000004000000000000012000000000000001536000000000000170002013012100000010000000000000BRCYREACNOR7124
012012122678CYREA18     070CYRE  FM    ON      NM000R$  000000000005000000000000500000000000050000000000005000000000000500000000000000000000000007100002000000000000045000000000000002250000000000000180002013012100000010000000000000BRCYREACNOR7124
012012122678CYREA43     070CYRE  FM    ON      NM000R$  000000000009000000000000910000000000090000000000009000000000000910000000000000000000000000000002000000000000006000000000000000543000000000000175002013012100000010000000000000BRCYREACNOR7124
012012122678CYREA44     070CYRE  FM    ON      NM000R$  000000000003300000000000330000000000033000000000003300000000000330000000000000000000000005200001000000000000003000000000000000099000000000000185002013012100000010000000000000BRCYREACNOR7124
012012122678CYREB17     070CYRE  FM    ON      NM000R$  000000000015900000000001590000000000159000000000015900000000001590000000000000000000000000000001000000000000003000000000000000477000000000000170002013021800000010000000000000BRCYREACNOR7124
012012122678CYREB18     070CYRE  FM    ON      NM000R$  000000000009000000000000920000000000090000000000009000000000000920000000000000000000000000000003000000000000009000000000000000816000000000000180002013021800000010000000000000BRCYREACNOR7124
012012122678CYREB19     070CYRE  FM    ON      NM000R$  000000000004400000000000440000000000043000000000004300000000000440000000000000000000000000000003000000000000009000000000000000393000000000000190002013021800000010000000000000BRCYREACNOR7124
012012122678CYREB43     070CYRE  FM    ON      NM000R$  000000000012100000000001210000000000121000000000012100000000001210000000000000000000000000000001000000000000003000000000000000363000000000000175002013021800000010000000000000BRCYREACNOR7124
012012122678CYREB44     070CYRE  FM    ON      NM000R$  000000000006400000000000650000000000064000000000006400000000000650000000000000000000000000000004000000000000012000000000000000774000000000000185002013021800000010000000000000BRCYREACNOR7124
012012122682CYREM18     080CYREE FM    ON      NM000R$  000000000005600000000000560000000000053000000000005400000000000530000000000000000000000000000002000000000000006000000000000000327000000000000180002013012100000010000000000000BRCYREACNOR7124
012012122682CYREM44     080CYREE FM    ON      NM000R$  000000000008000000000000800000000000077000000000007800000000000780000000000000000000000000000005000000000000015000000000000001176000000000000185002013012100000010000000000000BRCYREACNOR7124
012012122682CYREN18     080CYREE FM    ON      NM000R$  000000000008100000000000810000000000081000000000008100000000000810000000000000000000000000000002000000000000006000000000000000486000000000000180002013021800000010000000000000BRCYREACNOR7124
012012122682CYREN44     080CYREE FM    ON      NM000R$  000000000010500000000001050000000000102000000000010300000000001020000000000000000000000000000002000000000000006000000000000000621000000000000185002013021800000010000000000000BRCYREACNOR7124
012012122602CZLT11      010COSAN LTD   DR3          R$  000000000355100000000036600000000003547000000000360500000000036000000000003553000000000360001098000000000000307500000000001108567800000000000000009999123100000010000000000000BRCZLTBDR009104
012012122602DAGB11      010DUFRY AG    DR3          R$  000000002850000000000299990000000027502000000002816500000000277500000000027502000000002775000146000000000000004454000000000125449961000000000000009999123100000010000000000000BRDAGBBDR008100
012012122602DASA3       010DASA        ON      NM   R$  000000000131100000000013500000000001310000000000133800000000013430000000001335000000000134303636000000000001073500000000001437081600000000000000009999123100000010000000000000BRDASAACNOR1107
012012122696DASA3F      020DASA        ON      NM   R$  000000000132000000000013450000000001312000000000133200000000013300000000001320000000000135000021000000000000000501000000000000667713000000000000009999123100000010000000000000BRDASAACNOR1107
012012122662DASA3T      030DASA        ON      NM120R$  000000000136600000000013670000000001366000000000136600000000013670000000000000000000000000000002000000000000135000000000000184508280000000000000009999123100000010000000000000BRDASAACNOR1107
012012122682DASAR41     080DASAE       ON      NM000R$  000000000004900000000000490000000000049000000000004900000000000490000000000000000000000000000002000000000000282000000000000013818000000000000115002013061700000010000000000000BRDASAACNOR1107
012012122602DAYC4       010DAYCOVAL    PN      N1   R$  000000000099300000000010410000000000993000000000101500000000010050000000001005000000000102800126000000000000201700000000000204811200000000000000009999123100000010000000000000BRDAYCACNPR2124
012012122696DAYC4F      020DAYCOVAL    PN      N1   R$  000000000101000000000010100000000001010000000000101000000000010100000000000967000000000103000001000000000000000002000000000000002020000000000000009999123100000010000000000000BRDAYCACNPR2124
012012122602DIRR3       010DIRECIONAL  ON      NM   R$  000000000138500000000013950000000001364000000000138100000000013890000000001375000000000138901088000000000000319300000000000441088400000000000000009999123100000010000000000000BRDIRRACNOR0103
